{
  "_format": "hh-sol-artifact-1",
  "contractName": "SmugDoge",
  "sourceName": "contracts/SmugDoge.sol",
  "abi": [
    {
      "inputs": [],
      "stateMutability": "nonpayable",
      "type": "constructor"
    },
    {
      "anonymous": false,
      "inputs": [
        {
          "indexed": true,
          "internalType": "address",
          "name": "owner",
          "type": "address"
        },
        {
          "indexed": true,
          "internalType": "address",
          "name": "approved",
          "type": "address"
        },
        {
          "indexed": true,
          "internalType": "uint256",
          "name": "tokenId",
          "type": "uint256"
        }
      ],
      "name": "Approval",
      "type": "event"
    },
    {
      "anonymous": false,
      "inputs": [
        {
          "indexed": true,
          "internalType": "address",
          "name": "owner",
          "type": "address"
        },
        {
          "indexed": true,
          "internalType": "address",
          "name": "operator",
          "type": "address"
        },
        {
          "indexed": false,
          "internalType": "bool",
          "name": "approved",
          "type": "bool"
        }
      ],
      "name": "ApprovalForAll",
      "type": "event"
    },
    {
      "anonymous": false,
      "inputs": [
        {
          "indexed": true,
          "internalType": "address",
          "name": "previousOwner",
          "type": "address"
        },
        {
          "indexed": true,
          "internalType": "address",
          "name": "newOwner",
          "type": "address"
        }
      ],
      "name": "OwnershipTransferred",
      "type": "event"
    },
    {
      "anonymous": false,
      "inputs": [
        {
          "indexed": true,
          "internalType": "address",
          "name": "from",
          "type": "address"
        },
        {
          "indexed": true,
          "internalType": "address",
          "name": "to",
          "type": "address"
        },
        {
          "indexed": true,
          "internalType": "uint256",
          "name": "tokenId",
          "type": "uint256"
        }
      ],
      "name": "Transfer",
      "type": "event"
    },
    {
      "inputs": [],
      "name": "_baseURL",
      "outputs": [
        {
          "internalType": "string",
          "name": "",
          "type": "string"
        }
      ],
      "stateMutability": "view",
      "type": "function"
    },
    {
      "inputs": [
        {
          "internalType": "address",
          "name": "to",
          "type": "address"
        },
        {
          "internalType": "uint256",
          "name": "tokenId",
          "type": "uint256"
        }
      ],
      "name": "approve",
      "outputs": [],
      "stateMutability": "nonpayable",
      "type": "function"
    },
    {
      "inputs": [
        {
          "internalType": "address",
          "name": "owner",
          "type": "address"
        }
      ],
      "name": "balanceOf",
      "outputs": [
        {
          "internalType": "uint256",
          "name": "",
          "type": "uint256"
        }
      ],
      "stateMutability": "view",
      "type": "function"
    },
    {
      "inputs": [
        {
          "internalType": "uint256",
          "name": "tokenId",
          "type": "uint256"
        }
      ],
      "name": "getApproved",
      "outputs": [
        {
          "internalType": "address",
          "name": "",
          "type": "address"
        }
      ],
      "stateMutability": "view",
      "type": "function"
    },
    {
      "inputs": [
        {
          "internalType": "uint256",
          "name": "tokenId",
          "type": "uint256"
        }
      ],
      "name": "getTokenURL",
      "outputs": [
        {
          "internalType": "string",
          "name": "",
          "type": "string"
        }
      ],
      "stateMutability": "view",
      "type": "function"
    },
    {
      "inputs": [
        {
          "internalType": "address",
          "name": "owner",
          "type": "address"
        },
        {
          "internalType": "address",
          "name": "operator",
          "type": "address"
        }
      ],
      "name": "isApprovedForAll",
      "outputs": [
        {
          "internalType": "bool",
          "name": "",
          "type": "bool"
        }
      ],
      "stateMutability": "view",
      "type": "function"
    },
    {
      "inputs": [],
      "name": "launchDate",
      "outputs": [
        {
          "internalType": "uint256",
          "name": "",
          "type": "uint256"
        }
      ],
      "stateMutability": "view",
      "type": "function"
    },
    {
      "inputs": [],
      "name": "maxSupply",
      "outputs": [
        {
          "internalType": "uint256",
          "name": "",
          "type": "uint256"
        }
      ],
      "stateMutability": "view",
      "type": "function"
    },
    {
      "inputs": [
        {
          "internalType": "string",
          "name": "metadataURI",
          "type": "string"
        }
      ],
      "name": "mint",
      "outputs": [],
      "stateMutability": "payable",
      "type": "function"
    },
    {
      "inputs": [],
      "name": "name",
      "outputs": [
        {
          "internalType": "string",
          "name": "",
          "type": "string"
        }
      ],
      "stateMutability": "view",
      "type": "function"
    },
    {
      "inputs": [],
      "name": "owner",
      "outputs": [
        {
          "internalType": "address",
          "name": "",
          "type": "address"
        }
      ],
      "stateMutability": "view",
      "type": "function"
    },
    {
      "inputs": [
        {
          "internalType": "uint256",
          "name": "tokenId",
          "type": "uint256"
        }
      ],
      "name": "ownerOf",
      "outputs": [
        {
          "internalType": "address",
          "name": "",
          "type": "address"
        }
      ],
      "stateMutability": "view",
      "type": "function"
    },
    {
      "inputs": [],
      "name": "renounceOwnership",
      "outputs": [],
      "stateMutability": "nonpayable",
      "type": "function"
    },
    {
      "inputs": [
        {
          "internalType": "address",
          "name": "from",
          "type": "address"
        },
        {
          "internalType": "address",
          "name": "to",
          "type": "address"
        },
        {
          "internalType": "uint256",
          "name": "tokenId",
          "type": "uint256"
        }
      ],
      "name": "safeTransferFrom",
      "outputs": [],
      "stateMutability": "nonpayable",
      "type": "function"
    },
    {
      "inputs": [
        {
          "internalType": "address",
          "name": "from",
          "type": "address"
        },
        {
          "internalType": "address",
          "name": "to",
          "type": "address"
        },
        {
          "internalType": "uint256",
          "name": "tokenId",
          "type": "uint256"
        },
        {
          "internalType": "bytes",
          "name": "_data",
          "type": "bytes"
        }
      ],
      "name": "safeTransferFrom",
      "outputs": [],
      "stateMutability": "nonpayable",
      "type": "function"
    },
    {
      "inputs": [
        {
          "internalType": "address",
          "name": "operator",
          "type": "address"
        },
        {
          "internalType": "bool",
          "name": "approved",
          "type": "bool"
        }
      ],
      "name": "setApprovalForAll",
      "outputs": [],
      "stateMutability": "nonpayable",
      "type": "function"
    },
    {
      "inputs": [
        {
          "internalType": "string",
          "name": "baseURI",
          "type": "string"
        }
      ],
      "name": "setBaseURL",
      "outputs": [],
      "stateMutability": "nonpayable",
      "type": "function"
    },
    {
      "inputs": [
        {
          "internalType": "uint256",
          "name": "value",
          "type": "uint256"
        }
      ],
      "name": "setMaxSupply",
      "outputs": [],
      "stateMutability": "nonpayable",
      "type": "function"
    },
    {
      "inputs": [
        {
          "internalType": "bytes4",
          "name": "interfaceId",
          "type": "bytes4"
        }
      ],
      "name": "supportsInterface",
      "outputs": [
        {
          "internalType": "bool",
          "name": "",
          "type": "bool"
        }
      ],
      "stateMutability": "view",
      "type": "function"
    },
    {
      "inputs": [],
      "name": "symbol",
      "outputs": [
        {
          "internalType": "string",
          "name": "",
          "type": "string"
        }
      ],
      "stateMutability": "view",
      "type": "function"
    },
    {
      "inputs": [
        {
          "internalType": "uint256",
          "name": "tokenId",
          "type": "uint256"
        }
      ],
      "name": "tokenURI",
      "outputs": [
        {
          "internalType": "string",
          "name": "",
          "type": "string"
        }
      ],
      "stateMutability": "view",
      "type": "function"
    },
    {
      "inputs": [
        {
          "internalType": "address",
          "name": "from",
          "type": "address"
        },
        {
          "internalType": "address",
          "name": "to",
          "type": "address"
        },
        {
          "internalType": "uint256",
          "name": "tokenId",
          "type": "uint256"
        }
      ],
      "name": "transferFrom",
      "outputs": [],
      "stateMutability": "nonpayable",
      "type": "function"
    },
    {
      "inputs": [
        {
          "internalType": "address",
          "name": "newOwner",
          "type": "address"
        }
      ],
      "name": "transferOwnership",
      "outputs": [],
      "stateMutability": "nonpayable",
      "type": "function"
    },
    {
      "inputs": [
        {
          "internalType": "address payable",
          "name": "_addr",
          "type": "address"
        },
        {
          "internalType": "uint256",
          "name": "amount",
          "type": "uint256"
        }
      ],
      "name": "withdrawONE",
      "outputs": [],
      "stateMutability": "nonpayable",
      "type": "function"
    }
  ],
  "bytecode": "0x60806040526102b26008553480156200001757600080fd5b506040518060400160405280600881526020017f536d7567446f67650000000000000000000000000000000000000000000000008152506040518060400160405280600381526020017f534d44000000000000000000000000000000000000000000000000000000000081525081600090805190602001906200009c929190620002c7565b508060019080519060200190620000b5929190620002c7565b505050620000d8620000cc6200012460201b60201c565b6200012c60201b60201c565b6200011e6040518060400160405280600781526020017f697066733a2f2f00000000000000000000000000000000000000000000000000815250620001f260201b60201c565b6200045f565b600033905090565b6000600660009054906101000a900473ffffffffffffffffffffffffffffffffffffffff16905081600660006101000a81548173ffffffffffffffffffffffffffffffffffffffff021916908373ffffffffffffffffffffffffffffffffffffffff1602179055508173ffffffffffffffffffffffffffffffffffffffff168173ffffffffffffffffffffffffffffffffffffffff167f8be0079c531659141344cd1fd0a4f28419497f9722a3daafe3b4186f6b6457e060405160405180910390a35050565b620002026200012460201b60201c565b73ffffffffffffffffffffffffffffffffffffffff16620002286200029d60201b60201c565b73ffffffffffffffffffffffffffffffffffffffff161462000281576040517f08c379a000000000000000000000000000000000000000000000000000000000815260040162000278906200039e565b60405180910390fd5b806009908051906020019062000299929190620002c7565b5050565b6000600660009054906101000a900473ffffffffffffffffffffffffffffffffffffffff16905090565b828054620002d590620003d1565b90600052602060002090601f016020900481019282620002f9576000855562000345565b82601f106200031457805160ff191683800117855562000345565b8280016001018555821562000345579182015b828111156200034457825182559160200191906001019062000327565b5b50905062000354919062000358565b5090565b5b808211156200037357600081600090555060010162000359565b5090565b600062000386602083620003c0565b9150620003938262000436565b602082019050919050565b60006020820190508181036000830152620003b98162000377565b9050919050565b600082825260208201905092915050565b60006002820490506001821680620003ea57607f821691505b6020821081141562000401576200040062000407565b5b50919050565b7f4e487b7100000000000000000000000000000000000000000000000000000000600052602260045260246000fd5b7f4f776e61626c653a2063616c6c6572206973206e6f7420746865206f776e6572600082015250565b613411806200046f6000396000f3fe60806040526004361061014b5760003560e01c80638665e2ad116100b6578063d5abeb011161006f578063d5abeb011461049e578063d85d3d27146104c9578063e985e9c5146104e5578063f2fde38b14610522578063f8eeed621461054b578063f9e0edae146105765761014b565b80638665e2ad1461037c5780638da5cb5b146103b957806395d89b41146103e4578063a22cb4651461040f578063b88d4fde14610438578063c87b56dd146104615761014b565b806349f2553a1161010857806349f2553a146102705780636082072e146102995780636352211e146102c25780636f8b44b0146102ff57806370a0823114610328578063715018a6146103655761014b565b806301ffc9a71461015057806306fdde031461018d578063081812fc146101b8578063095ea7b3146101f557806323b872dd1461021e57806342842e0e14610247575b600080fd5b34801561015c57600080fd5b506101776004803603810190610172919061237c565b6105a1565b6040516101849190612809565b60405180910390f35b34801561019957600080fd5b506101a2610683565b6040516101af9190612824565b60405180910390f35b3480156101c457600080fd5b506101df60048036038101906101da919061240f565b610715565b6040516101ec91906127a2565b60405180910390f35b34801561020157600080fd5b5061021c60048036038101906102179190612340565b61079a565b005b34801561022a57600080fd5b506102456004803603810190610240919061223a565b6108b2565b005b34801561025357600080fd5b5061026e6004803603810190610269919061223a565b610912565b005b34801561027c57600080fd5b50610297600480360381019061029291906123ce565b610932565b005b3480156102a557600080fd5b506102c060048036038101906102bb91906121c2565b6109c8565b005b3480156102ce57600080fd5b506102e960048036038101906102e4919061240f565b610a8f565b6040516102f691906127a2565b60405180910390f35b34801561030b57600080fd5b506103266004803603810190610321919061240f565b610b41565b005b34801561033457600080fd5b5061034f600480360381019061034a9190612199565b610bc7565b60405161035c9190612a86565b60405180910390f35b34801561037157600080fd5b5061037a610c7f565b005b34801561038857600080fd5b506103a3600480360381019061039e919061240f565b610d07565b6040516103b09190612824565b60405180910390f35b3480156103c557600080fd5b506103ce610dac565b6040516103db91906127a2565b60405180910390f35b3480156103f057600080fd5b506103f9610dd6565b6040516104069190612824565b60405180910390f35b34801561041b57600080fd5b5061043660048036038101906104319190612304565b610e68565b005b34801561044457600080fd5b5061045f600480360381019061045a9190612289565b610e7e565b005b34801561046d57600080fd5b506104886004803603810190610483919061240f565b610ee0565b6040516104959190612824565b60405180910390f35b3480156104aa57600080fd5b506104b3610f87565b6040516104c09190612a86565b60405180910390f35b6104e360048036038101906104de91906123ce565b610f91565b005b3480156104f157600080fd5b5061050c600480360381019061050791906121fe565b61104a565b6040516105199190612809565b60405180910390f35b34801561052e57600080fd5b5061054960048036038101906105449190612199565b6110de565b005b34801561055757600080fd5b506105606111d6565b60405161056d9190612a86565b60405180910390f35b34801561058257600080fd5b5061058b6111dc565b6040516105989190612824565b60405180910390f35b60007f80ac58cd000000000000000000000000000000000000000000000000000000007bffffffffffffffffffffffffffffffffffffffffffffffffffffffff1916827bffffffffffffffffffffffffffffffffffffffffffffffffffffffff1916148061066c57507f5b5e139f000000000000000000000000000000000000000000000000000000007bffffffffffffffffffffffffffffffffffffffffffffffffffffffff1916827bffffffffffffffffffffffffffffffffffffffffffffffffffffffff1916145b8061067c575061067b8261126a565b5b9050919050565b60606000805461069290612cee565b80601f01602080910402602001604051908101604052809291908181526020018280546106be90612cee565b801561070b5780601f106106e05761010080835404028352916020019161070b565b820191906000526020600020905b8154815290600101906020018083116106ee57829003601f168201915b5050505050905090565b6000610720826112d4565b61075f576040517f08c379a0000000000000000000000000000000000000000000000000000000008152600401610756906129a6565b60405180910390fd5b6004600083815260200190815260200160002060009054906101000a900473ffffffffffffffffffffffffffffffffffffffff169050919050565b60006107a582610a8f565b90508073ffffffffffffffffffffffffffffffffffffffff168373ffffffffffffffffffffffffffffffffffffffff161415610816576040517f08c379a000000000000000000000000000000000000000000000000000000000815260040161080d90612a26565b60405180910390fd5b8073ffffffffffffffffffffffffffffffffffffffff16610835611340565b73ffffffffffffffffffffffffffffffffffffffff16148061086457506108638161085e611340565b61104a565b5b6108a3576040517f08c379a000000000000000000000000000000000000000000000000000000000815260040161089a90612906565b60405180910390fd5b6108ad8383611348565b505050565b6108c36108bd611340565b82611401565b610902576040517f08c379a00000000000000000000000000000000000000000000000000000000081526004016108f990612a46565b60405180910390fd5b61090d8383836114df565b505050565b61092d83838360405180602001604052806000815250610e7e565b505050565b61093a611340565b73ffffffffffffffffffffffffffffffffffffffff16610958610dac565b73ffffffffffffffffffffffffffffffffffffffff16146109ae576040517f08c379a00000000000000000000000000000000000000000000000000000000081526004016109a5906129c6565b60405180910390fd5b80600990805190602001906109c4929190611fa8565b5050565b6109d0611340565b73ffffffffffffffffffffffffffffffffffffffff166109ee610dac565b73ffffffffffffffffffffffffffffffffffffffff1614610a44576040517f08c379a0000000000000000000000000000000000000000000000000000000008152600401610a3b906129c6565b60405180910390fd5b8173ffffffffffffffffffffffffffffffffffffffff166108fc829081150290604051600060405180830381858888f19350505050158015610a8a573d6000803e3d6000fd5b505050565b6000806002600084815260200190815260200160002060009054906101000a900473ffffffffffffffffffffffffffffffffffffffff169050600073ffffffffffffffffffffffffffffffffffffffff168173ffffffffffffffffffffffffffffffffffffffff161415610b38576040517f08c379a0000000000000000000000000000000000000000000000000000000008152600401610b2f90612946565b60405180910390fd5b80915050919050565b610b49611340565b73ffffffffffffffffffffffffffffffffffffffff16610b67610dac565b73ffffffffffffffffffffffffffffffffffffffff1614610bbd576040517f08c379a0000000000000000000000000000000000000000000000000000000008152600401610bb4906129c6565b60405180910390fd5b8060088190555050565b60008073ffffffffffffffffffffffffffffffffffffffff168273ffffffffffffffffffffffffffffffffffffffff161415610c38576040517f08c379a0000000000000000000000000000000000000000000000000000000008152600401610c2f90612926565b60405180910390fd5b600360008373ffffffffffffffffffffffffffffffffffffffff1673ffffffffffffffffffffffffffffffffffffffff168152602001908152602001600020549050919050565b610c87611340565b73ffffffffffffffffffffffffffffffffffffffff16610ca5610dac565b73ffffffffffffffffffffffffffffffffffffffff1614610cfb576040517f08c379a0000000000000000000000000000000000000000000000000000000008152600401610cf2906129c6565b60405180910390fd5b610d05600061173b565b565b6060600b60008381526020019081526020016000208054610d2790612cee565b80601f0160208091040260200160405190810160405280929190818152602001828054610d5390612cee565b8015610da05780601f10610d7557610100808354040283529160200191610da0565b820191906000526020600020905b815481529060010190602001808311610d8357829003601f168201915b50505050509050919050565b6000600660009054906101000a900473ffffffffffffffffffffffffffffffffffffffff16905090565b606060018054610de590612cee565b80601f0160208091040260200160405190810160405280929190818152602001828054610e1190612cee565b8015610e5e5780601f10610e3357610100808354040283529160200191610e5e565b820191906000526020600020905b815481529060010190602001808311610e4157829003601f168201915b5050505050905090565b610e7a610e73611340565b8383611801565b5050565b610e8f610e89611340565b83611401565b610ece576040517f08c379a0000000000000000000000000000000000000000000000000000000008152600401610ec590612a46565b60405180910390fd5b610eda8484848461196e565b50505050565b6060610eeb826112d4565b610f2a576040517f08c379a0000000000000000000000000000000000000000000000000000000008152600401610f2190612a06565b60405180910390fd5b6000610f346119ca565b90506000815111610f545760405180602001604052806000815250610f7f565b80610f5e846119e1565b604051602001610f6f92919061277e565b6040516020818303038152906040525b915050919050565b6000600854905090565b600854610f9e6007611b8e565b10610fde576040517f08c379a0000000000000000000000000000000000000000000000000000000008152600401610fd590612a66565b60405180910390fd5b6816c4abbebea010000034101561102a576040517f08c379a000000000000000000000000000000000000000000000000000000000815260040161102190612986565b60405180910390fd5b61103d336110386007611b8e565b611b9c565b6110476007611bba565b50565b6000600560008473ffffffffffffffffffffffffffffffffffffffff1673ffffffffffffffffffffffffffffffffffffffff16815260200190815260200160002060008373ffffffffffffffffffffffffffffffffffffffff1673ffffffffffffffffffffffffffffffffffffffff16815260200190815260200160002060009054906101000a900460ff16905092915050565b6110e6611340565b73ffffffffffffffffffffffffffffffffffffffff16611104610dac565b73ffffffffffffffffffffffffffffffffffffffff161461115a576040517f08c379a0000000000000000000000000000000000000000000000000000000008152600401611151906129c6565b60405180910390fd5b600073ffffffffffffffffffffffffffffffffffffffff168173ffffffffffffffffffffffffffffffffffffffff1614156111ca576040517f08c379a00000000000000000000000000000000000000000000000000000000081526004016111c190612866565b60405180910390fd5b6111d38161173b565b50565b600a5481565b600980546111e990612cee565b80601f016020809104026020016040519081016040528092919081815260200182805461121590612cee565b80156112625780601f1061123757610100808354040283529160200191611262565b820191906000526020600020905b81548152906001019060200180831161124557829003601f168201915b505050505081565b60007f01ffc9a7000000000000000000000000000000000000000000000000000000007bffffffffffffffffffffffffffffffffffffffffffffffffffffffff1916827bffffffffffffffffffffffffffffffffffffffffffffffffffffffff1916149050919050565b60008073ffffffffffffffffffffffffffffffffffffffff166002600084815260200190815260200160002060009054906101000a900473ffffffffffffffffffffffffffffffffffffffff1673ffffffffffffffffffffffffffffffffffffffff1614159050919050565b600033905090565b816004600083815260200190815260200160002060006101000a81548173ffffffffffffffffffffffffffffffffffffffff021916908373ffffffffffffffffffffffffffffffffffffffff160217905550808273ffffffffffffffffffffffffffffffffffffffff166113bb83610a8f565b73ffffffffffffffffffffffffffffffffffffffff167f8c5be1e5ebec7d5bd14f71427d1e84f3dd0314c0f7b2291e5b200ac8c7c3b92560405160405180910390a45050565b600061140c826112d4565b61144b576040517f08c379a0000000000000000000000000000000000000000000000000000000008152600401611442906128e6565b60405180910390fd5b600061145683610a8f565b90508073ffffffffffffffffffffffffffffffffffffffff168473ffffffffffffffffffffffffffffffffffffffff1614806114c557508373ffffffffffffffffffffffffffffffffffffffff166114ad84610715565b73ffffffffffffffffffffffffffffffffffffffff16145b806114d657506114d5818561104a565b5b91505092915050565b8273ffffffffffffffffffffffffffffffffffffffff166114ff82610a8f565b73ffffffffffffffffffffffffffffffffffffffff1614611555576040517f08c379a000000000000000000000000000000000000000000000000000000000815260040161154c906129e6565b60405180910390fd5b600073ffffffffffffffffffffffffffffffffffffffff168273ffffffffffffffffffffffffffffffffffffffff1614156115c5576040517f08c379a00000000000000000000000000000000000000000000000000000000081526004016115bc906128a6565b60405180910390fd5b6115d0838383611bd0565b6115db600082611348565b6001600360008573ffffffffffffffffffffffffffffffffffffffff1673ffffffffffffffffffffffffffffffffffffffff168152602001908152602001600020600082825461162b9190612bf2565b925050819055506001600360008473ffffffffffffffffffffffffffffffffffffffff1673ffffffffffffffffffffffffffffffffffffffff16815260200190815260200160002060008282546116829190612b6b565b92505081905550816002600083815260200190815260200160002060006101000a81548173ffffffffffffffffffffffffffffffffffffffff021916908373ffffffffffffffffffffffffffffffffffffffff160217905550808273ffffffffffffffffffffffffffffffffffffffff168473ffffffffffffffffffffffffffffffffffffffff167fddf252ad1be2c89b69c2b068fc378daa952ba7f163c4a11628f55a4df523b3ef60405160405180910390a4505050565b6000600660009054906101000a900473ffffffffffffffffffffffffffffffffffffffff16905081600660006101000a81548173ffffffffffffffffffffffffffffffffffffffff021916908373ffffffffffffffffffffffffffffffffffffffff1602179055508173ffffffffffffffffffffffffffffffffffffffff168173ffffffffffffffffffffffffffffffffffffffff167f8be0079c531659141344cd1fd0a4f28419497f9722a3daafe3b4186f6b6457e060405160405180910390a35050565b8173ffffffffffffffffffffffffffffffffffffffff168373ffffffffffffffffffffffffffffffffffffffff161415611870576040517f08c379a0000000000000000000000000000000000000000000000000000000008152600401611867906128c6565b60405180910390fd5b80600560008573ffffffffffffffffffffffffffffffffffffffff1673ffffffffffffffffffffffffffffffffffffffff16815260200190815260200160002060008473ffffffffffffffffffffffffffffffffffffffff1673ffffffffffffffffffffffffffffffffffffffff16815260200190815260200160002060006101000a81548160ff0219169083151502179055508173ffffffffffffffffffffffffffffffffffffffff168373ffffffffffffffffffffffffffffffffffffffff167f17307eab39ab6107e8899845ad3d59bd9653f200f220920489ca2b5937696c31836040516119619190612809565b60405180910390a3505050565b6119798484846114df565b61198584848484611bd5565b6119c4576040517f08c379a00000000000000000000000000000000000000000000000000000000081526004016119bb90612846565b60405180910390fd5b50505050565b606060405180602001604052806000815250905090565b60606000821415611a29576040518060400160405280600181526020017f30000000000000000000000000000000000000000000000000000000000000008152509050611b89565b600082905060005b60008214611a5b578080611a4490612d51565b915050600a82611a549190612bc1565b9150611a31565b60008167ffffffffffffffff811115611a9d577f4e487b7100000000000000000000000000000000000000000000000000000000600052604160045260246000fd5b6040519080825280601f01601f191660200182016040528015611acf5781602001600182028036833780820191505090505b5090505b60008514611b8257600182611ae89190612bf2565b9150600a85611af79190612d9a565b6030611b039190612b6b565b60f81b818381518110611b3f577f4e487b7100000000000000000000000000000000000000000000000000000000600052603260045260246000fd5b60200101907effffffffffffffffffffffffffffffffffffffffffffffffffffffffffffff1916908160001a905350600a85611b7b9190612bc1565b9450611ad3565b8093505050505b919050565b600081600001549050919050565b611bb6828260405180602001604052806000815250611d6c565b5050565b6001816000016000828254019250508190555050565b505050565b6000611bf68473ffffffffffffffffffffffffffffffffffffffff16611dc7565b15611d5f578373ffffffffffffffffffffffffffffffffffffffff1663150b7a02611c1f611340565b8786866040518563ffffffff1660e01b8152600401611c4194939291906127bd565b602060405180830381600087803b158015611c5b57600080fd5b505af1925050508015611c8c57506040513d601f19601f82011682018060405250810190611c8991906123a5565b60015b611d0f573d8060008114611cbc576040519150601f19603f3d011682016040523d82523d6000602084013e611cc1565b606091505b50600081511415611d07576040517f08c379a0000000000000000000000000000000000000000000000000000000008152600401611cfe90612846565b60405180910390fd5b805181602001fd5b63150b7a0260e01b7bffffffffffffffffffffffffffffffffffffffffffffffffffffffff1916817bffffffffffffffffffffffffffffffffffffffffffffffffffffffff191614915050611d64565b600190505b949350505050565b611d768383611dda565b611d836000848484611bd5565b611dc2576040517f08c379a0000000000000000000000000000000000000000000000000000000008152600401611db990612846565b60405180910390fd5b505050565b600080823b905060008111915050919050565b600073ffffffffffffffffffffffffffffffffffffffff168273ffffffffffffffffffffffffffffffffffffffff161415611e4a576040517f08c379a0000000000000000000000000000000000000000000000000000000008152600401611e4190612966565b60405180910390fd5b611e53816112d4565b15611e93576040517f08c379a0000000000000000000000000000000000000000000000000000000008152600401611e8a90612886565b60405180910390fd5b611e9f60008383611bd0565b6001600360008473ffffffffffffffffffffffffffffffffffffffff1673ffffffffffffffffffffffffffffffffffffffff1681526020019081526020016000206000828254611eef9190612b6b565b92505081905550816002600083815260200190815260200160002060006101000a81548173ffffffffffffffffffffffffffffffffffffffff021916908373ffffffffffffffffffffffffffffffffffffffff160217905550808273ffffffffffffffffffffffffffffffffffffffff16600073ffffffffffffffffffffffffffffffffffffffff167fddf252ad1be2c89b69c2b068fc378daa952ba7f163c4a11628f55a4df523b3ef60405160405180910390a45050565b828054611fb490612cee565b90600052602060002090601f016020900481019282611fd6576000855561201d565b82601f10611fef57805160ff191683800117855561201d565b8280016001018555821561201d579182015b8281111561201c578251825591602001919060010190612001565b5b50905061202a919061202e565b5090565b5b8082111561204757600081600090555060010161202f565b5090565b600061205e61205984612ac6565b612aa1565b90508281526020810184848401111561207657600080fd5b612081848285612cac565b509392505050565b600061209c61209784612af7565b612aa1565b9050828152602081018484840111156120b457600080fd5b6120bf848285612cac565b509392505050565b6000813590506120d681613368565b92915050565b6000813590506120eb8161337f565b92915050565b60008135905061210081613396565b92915050565b600081359050612115816133ad565b92915050565b60008151905061212a816133ad565b92915050565b600082601f83011261214157600080fd5b813561215184826020860161204b565b91505092915050565b600082601f83011261216b57600080fd5b813561217b848260208601612089565b91505092915050565b600081359050612193816133c4565b92915050565b6000602082840312156121ab57600080fd5b60006121b9848285016120c7565b91505092915050565b600080604083850312156121d557600080fd5b60006121e3858286016120dc565b92505060206121f485828601612184565b9150509250929050565b6000806040838503121561221157600080fd5b600061221f858286016120c7565b9250506020612230858286016120c7565b9150509250929050565b60008060006060848603121561224f57600080fd5b600061225d868287016120c7565b935050602061226e868287016120c7565b925050604061227f86828701612184565b9150509250925092565b6000806000806080858703121561229f57600080fd5b60006122ad878288016120c7565b94505060206122be878288016120c7565b93505060406122cf87828801612184565b925050606085013567ffffffffffffffff8111156122ec57600080fd5b6122f887828801612130565b91505092959194509250565b6000806040838503121561231757600080fd5b6000612325858286016120c7565b9250506020612336858286016120f1565b9150509250929050565b6000806040838503121561235357600080fd5b6000612361858286016120c7565b925050602061237285828601612184565b9150509250929050565b60006020828403121561238e57600080fd5b600061239c84828501612106565b91505092915050565b6000602082840312156123b757600080fd5b60006123c58482850161211b565b91505092915050565b6000602082840312156123e057600080fd5b600082013567ffffffffffffffff8111156123fa57600080fd5b6124068482850161215a565b91505092915050565b60006020828403121561242157600080fd5b600061242f84828501612184565b91505092915050565b61244181612c26565b82525050565b61245081612c4a565b82525050565b600061246182612b28565b61246b8185612b3e565b935061247b818560208601612cbb565b61248481612e87565b840191505092915050565b600061249a82612b33565b6124a48185612b4f565b93506124b4818560208601612cbb565b6124bd81612e87565b840191505092915050565b60006124d382612b33565b6124dd8185612b60565b93506124ed818560208601612cbb565b80840191505092915050565b6000612506603283612b4f565b915061251182612e98565b604082019050919050565b6000612529602683612b4f565b915061253482612ee7565b604082019050919050565b600061254c601c83612b4f565b915061255782612f36565b602082019050919050565b600061256f602483612b4f565b915061257a82612f5f565b604082019050919050565b6000612592601983612b4f565b915061259d82612fae565b602082019050919050565b60006125b5602c83612b4f565b91506125c082612fd7565b604082019050919050565b60006125d8603883612b4f565b91506125e382613026565b604082019050919050565b60006125fb602a83612b4f565b915061260682613075565b604082019050919050565b600061261e602983612b4f565b9150612629826130c4565b604082019050919050565b6000612641602083612b4f565b915061264c82613113565b602082019050919050565b6000612664601483612b4f565b915061266f8261313c565b602082019050919050565b6000612687602c83612b4f565b915061269282613165565b604082019050919050565b60006126aa602083612b4f565b91506126b5826131b4565b602082019050919050565b60006126cd602983612b4f565b91506126d8826131dd565b604082019050919050565b60006126f0602f83612b4f565b91506126fb8261322c565b604082019050919050565b6000612713602183612b4f565b915061271e8261327b565b604082019050919050565b6000612736603183612b4f565b9150612741826132ca565b604082019050919050565b6000612759602183612b4f565b915061276482613319565b604082019050919050565b61277881612ca2565b82525050565b600061278a82856124c8565b915061279682846124c8565b91508190509392505050565b60006020820190506127b76000830184612438565b92915050565b60006080820190506127d26000830187612438565b6127df6020830186612438565b6127ec604083018561276f565b81810360608301526127fe8184612456565b905095945050505050565b600060208201905061281e6000830184612447565b92915050565b6000602082019050818103600083015261283e818461248f565b905092915050565b6000602082019050818103600083015261285f816124f9565b9050919050565b6000602082019050818103600083015261287f8161251c565b9050919050565b6000602082019050818103600083015261289f8161253f565b9050919050565b600060208201905081810360008301526128bf81612562565b9050919050565b600060208201905081810360008301526128df81612585565b9050919050565b600060208201905081810360008301526128ff816125a8565b9050919050565b6000602082019050818103600083015261291f816125cb565b9050919050565b6000602082019050818103600083015261293f816125ee565b9050919050565b6000602082019050818103600083015261295f81612611565b9050919050565b6000602082019050818103600083015261297f81612634565b9050919050565b6000602082019050818103600083015261299f81612657565b9050919050565b600060208201905081810360008301526129bf8161267a565b9050919050565b600060208201905081810360008301526129df8161269d565b9050919050565b600060208201905081810360008301526129ff816126c0565b9050919050565b60006020820190508181036000830152612a1f816126e3565b9050919050565b60006020820190508181036000830152612a3f81612706565b9050919050565b60006020820190508181036000830152612a5f81612729565b9050919050565b60006020820190508181036000830152612a7f8161274c565b9050919050565b6000602082019050612a9b600083018461276f565b92915050565b6000612aab612abc565b9050612ab78282612d20565b919050565b6000604051905090565b600067ffffffffffffffff821115612ae157612ae0612e58565b5b612aea82612e87565b9050602081019050919050565b600067ffffffffffffffff821115612b1257612b11612e58565b5b612b1b82612e87565b9050602081019050919050565b600081519050919050565b600081519050919050565b600082825260208201905092915050565b600082825260208201905092915050565b600081905092915050565b6000612b7682612ca2565b9150612b8183612ca2565b9250827fffffffffffffffffffffffffffffffffffffffffffffffffffffffffffffffff03821115612bb657612bb5612dcb565b5b828201905092915050565b6000612bcc82612ca2565b9150612bd783612ca2565b925082612be757612be6612dfa565b5b828204905092915050565b6000612bfd82612ca2565b9150612c0883612ca2565b925082821015612c1b57612c1a612dcb565b5b828203905092915050565b6000612c3182612c82565b9050919050565b6000612c4382612c82565b9050919050565b60008115159050919050565b60007fffffffff0000000000000000000000000000000000000000000000000000000082169050919050565b600073ffffffffffffffffffffffffffffffffffffffff82169050919050565b6000819050919050565b82818337600083830152505050565b60005b83811015612cd9578082015181840152602081019050612cbe565b83811115612ce8576000848401525b50505050565b60006002820490506001821680612d0657607f821691505b60208210811415612d1a57612d19612e29565b5b50919050565b612d2982612e87565b810181811067ffffffffffffffff82111715612d4857612d47612e58565b5b80604052505050565b6000612d5c82612ca2565b91507fffffffffffffffffffffffffffffffffffffffffffffffffffffffffffffffff821415612d8f57612d8e612dcb565b5b600182019050919050565b6000612da582612ca2565b9150612db083612ca2565b925082612dc057612dbf612dfa565b5b828206905092915050565b7f4e487b7100000000000000000000000000000000000000000000000000000000600052601160045260246000fd5b7f4e487b7100000000000000000000000000000000000000000000000000000000600052601260045260246000fd5b7f4e487b7100000000000000000000000000000000000000000000000000000000600052602260045260246000fd5b7f4e487b7100000000000000000000000000000000000000000000000000000000600052604160045260246000fd5b6000601f19601f8301169050919050565b7f4552433732313a207472616e7366657220746f206e6f6e20455243373231526560008201527f63656976657220696d706c656d656e7465720000000000000000000000000000602082015250565b7f4f776e61626c653a206e6577206f776e657220697320746865207a65726f206160008201527f6464726573730000000000000000000000000000000000000000000000000000602082015250565b7f4552433732313a20746f6b656e20616c7265616479206d696e74656400000000600082015250565b7f4552433732313a207472616e7366657220746f20746865207a65726f2061646460008201527f7265737300000000000000000000000000000000000000000000000000000000602082015250565b7f4552433732313a20617070726f766520746f2063616c6c657200000000000000600082015250565b7f4552433732313a206f70657261746f7220717565727920666f72206e6f6e657860008201527f697374656e7420746f6b656e0000000000000000000000000000000000000000602082015250565b7f4552433732313a20617070726f76652063616c6c6572206973206e6f74206f7760008201527f6e6572206e6f7220617070726f76656420666f7220616c6c0000000000000000602082015250565b7f4552433732313a2062616c616e636520717565727920666f7220746865207a6560008201527f726f206164647265737300000000000000000000000000000000000000000000602082015250565b7f4552433732313a206f776e657220717565727920666f72206e6f6e657869737460008201527f656e7420746f6b656e0000000000000000000000000000000000000000000000602082015250565b7f4552433732313a206d696e7420746f20746865207a65726f2061646472657373600082015250565b7f496e73756666696369656e74207061796d656e74000000000000000000000000600082015250565b7f4552433732313a20617070726f76656420717565727920666f72206e6f6e657860008201527f697374656e7420746f6b656e0000000000000000000000000000000000000000602082015250565b7f4f776e61626c653a2063616c6c6572206973206e6f7420746865206f776e6572600082015250565b7f4552433732313a207472616e73666572206f6620746f6b656e2074686174206960008201527f73206e6f74206f776e0000000000000000000000000000000000000000000000602082015250565b7f4552433732314d657461646174613a2055524920717565727920666f72206e6f60008201527f6e6578697374656e7420746f6b656e0000000000000000000000000000000000602082015250565b7f4552433732313a20617070726f76616c20746f2063757272656e74206f776e6560008201527f7200000000000000000000000000000000000000000000000000000000000000602082015250565b7f4552433732313a207472616e736665722063616c6c6572206973206e6f74206f60008201527f776e6572206e6f7220617070726f766564000000000000000000000000000000602082015250565b7f43616e206e6f74206d696e74206d6f7265207468616e206d617820737570706c60008201527f7900000000000000000000000000000000000000000000000000000000000000602082015250565b61337181612c26565b811461337c57600080fd5b50565b61338881612c38565b811461339357600080fd5b50565b61339f81612c4a565b81146133aa57600080fd5b50565b6133b681612c56565b81146133c157600080fd5b50565b6133cd81612ca2565b81146133d857600080fd5b5056fea264697066735822122031a05c5626ff8504b45a7516c3b3de13f56f1b66b552747f3637768608d6628464736f6c63430008040033",
  "linkReferences": {},
  "deployedLinkReferences": {}
}