{
  "_format": "hh-sol-artifact-1",
  "contractName": "SmugDogeNFT",
  "sourceName": "contracts/SmugDoge.sol",
  "abi": [
    {
      "inputs": [],
      "stateMutability": "nonpayable",
      "type": "constructor"
    },
    {
      "anonymous": false,
      "inputs": [
        {
          "indexed": true,
          "internalType": "address",
          "name": "owner",
          "type": "address"
        },
        {
          "indexed": true,
          "internalType": "address",
          "name": "approved",
          "type": "address"
        },
        {
          "indexed": true,
          "internalType": "uint256",
          "name": "tokenId",
          "type": "uint256"
        }
      ],
      "name": "Approval",
      "type": "event"
    },
    {
      "anonymous": false,
      "inputs": [
        {
          "indexed": true,
          "internalType": "address",
          "name": "owner",
          "type": "address"
        },
        {
          "indexed": true,
          "internalType": "address",
          "name": "operator",
          "type": "address"
        },
        {
          "indexed": false,
          "internalType": "bool",
          "name": "approved",
          "type": "bool"
        }
      ],
      "name": "ApprovalForAll",
      "type": "event"
    },
    {
      "anonymous": false,
      "inputs": [
        {
          "indexed": true,
          "internalType": "address",
          "name": "previousOwner",
          "type": "address"
        },
        {
          "indexed": true,
          "internalType": "address",
          "name": "newOwner",
          "type": "address"
        }
      ],
      "name": "OwnershipTransferred",
      "type": "event"
    },
    {
      "anonymous": false,
      "inputs": [
        {
          "indexed": true,
          "internalType": "address",
          "name": "from",
          "type": "address"
        },
        {
          "indexed": true,
          "internalType": "address",
          "name": "to",
          "type": "address"
        },
        {
          "indexed": true,
          "internalType": "uint256",
          "name": "tokenId",
          "type": "uint256"
        }
      ],
      "name": "Transfer",
      "type": "event"
    },
    {
      "inputs": [],
      "name": "MAX_PER_MINT",
      "outputs": [
        {
          "internalType": "uint256",
          "name": "",
          "type": "uint256"
        }
      ],
      "stateMutability": "view",
      "type": "function"
    },
    {
      "inputs": [],
      "name": "MAX_SUPPLY",
      "outputs": [
        {
          "internalType": "uint256",
          "name": "",
          "type": "uint256"
        }
      ],
      "stateMutability": "view",
      "type": "function"
    },
    {
      "inputs": [],
      "name": "PRICE",
      "outputs": [
        {
          "internalType": "uint256",
          "name": "",
          "type": "uint256"
        }
      ],
      "stateMutability": "view",
      "type": "function"
    },
    {
      "inputs": [
        {
          "internalType": "address",
          "name": "to",
          "type": "address"
        },
        {
          "internalType": "uint256",
          "name": "tokenId",
          "type": "uint256"
        }
      ],
      "name": "approve",
      "outputs": [],
      "stateMutability": "nonpayable",
      "type": "function"
    },
    {
      "inputs": [
        {
          "internalType": "address",
          "name": "owner",
          "type": "address"
        }
      ],
      "name": "balanceOf",
      "outputs": [
        {
          "internalType": "uint256",
          "name": "",
          "type": "uint256"
        }
      ],
      "stateMutability": "view",
      "type": "function"
    },
    {
      "inputs": [],
      "name": "baseTokenURI",
      "outputs": [
        {
          "internalType": "string",
          "name": "",
          "type": "string"
        }
      ],
      "stateMutability": "view",
      "type": "function"
    },
    {
      "inputs": [
        {
          "internalType": "uint256",
          "name": "tokenId",
          "type": "uint256"
        }
      ],
      "name": "getApproved",
      "outputs": [
        {
          "internalType": "address",
          "name": "",
          "type": "address"
        }
      ],
      "stateMutability": "view",
      "type": "function"
    },
    {
      "inputs": [
        {
          "internalType": "address",
          "name": "owner",
          "type": "address"
        },
        {
          "internalType": "address",
          "name": "operator",
          "type": "address"
        }
      ],
      "name": "isApprovedForAll",
      "outputs": [
        {
          "internalType": "bool",
          "name": "",
          "type": "bool"
        }
      ],
      "stateMutability": "view",
      "type": "function"
    },
    {
      "inputs": [],
      "name": "mintNFTs",
      "outputs": [],
      "stateMutability": "payable",
      "type": "function"
    },
    {
      "inputs": [],
      "name": "name",
      "outputs": [
        {
          "internalType": "string",
          "name": "",
          "type": "string"
        }
      ],
      "stateMutability": "view",
      "type": "function"
    },
    {
      "inputs": [],
      "name": "owner",
      "outputs": [
        {
          "internalType": "address",
          "name": "",
          "type": "address"
        }
      ],
      "stateMutability": "view",
      "type": "function"
    },
    {
      "inputs": [
        {
          "internalType": "uint256",
          "name": "tokenId",
          "type": "uint256"
        }
      ],
      "name": "ownerOf",
      "outputs": [
        {
          "internalType": "address",
          "name": "",
          "type": "address"
        }
      ],
      "stateMutability": "view",
      "type": "function"
    },
    {
      "inputs": [],
      "name": "renounceOwnership",
      "outputs": [],
      "stateMutability": "nonpayable",
      "type": "function"
    },
    {
      "inputs": [
        {
          "internalType": "address",
          "name": "from",
          "type": "address"
        },
        {
          "internalType": "address",
          "name": "to",
          "type": "address"
        },
        {
          "internalType": "uint256",
          "name": "tokenId",
          "type": "uint256"
        }
      ],
      "name": "safeTransferFrom",
      "outputs": [],
      "stateMutability": "nonpayable",
      "type": "function"
    },
    {
      "inputs": [
        {
          "internalType": "address",
          "name": "from",
          "type": "address"
        },
        {
          "internalType": "address",
          "name": "to",
          "type": "address"
        },
        {
          "internalType": "uint256",
          "name": "tokenId",
          "type": "uint256"
        },
        {
          "internalType": "bytes",
          "name": "_data",
          "type": "bytes"
        }
      ],
      "name": "safeTransferFrom",
      "outputs": [],
      "stateMutability": "nonpayable",
      "type": "function"
    },
    {
      "inputs": [
        {
          "internalType": "address",
          "name": "operator",
          "type": "address"
        },
        {
          "internalType": "bool",
          "name": "approved",
          "type": "bool"
        }
      ],
      "name": "setApprovalForAll",
      "outputs": [],
      "stateMutability": "nonpayable",
      "type": "function"
    },
    {
      "inputs": [
        {
          "internalType": "string",
          "name": "_baseTokenURI",
          "type": "string"
        }
      ],
      "name": "setBaseURI",
      "outputs": [],
      "stateMutability": "nonpayable",
      "type": "function"
    },
    {
      "inputs": [
        {
          "internalType": "bytes4",
          "name": "interfaceId",
          "type": "bytes4"
        }
      ],
      "name": "supportsInterface",
      "outputs": [
        {
          "internalType": "bool",
          "name": "",
          "type": "bool"
        }
      ],
      "stateMutability": "view",
      "type": "function"
    },
    {
      "inputs": [],
      "name": "symbol",
      "outputs": [
        {
          "internalType": "string",
          "name": "",
          "type": "string"
        }
      ],
      "stateMutability": "view",
      "type": "function"
    },
    {
      "inputs": [
        {
          "internalType": "uint256",
          "name": "index",
          "type": "uint256"
        }
      ],
      "name": "tokenByIndex",
      "outputs": [
        {
          "internalType": "uint256",
          "name": "",
          "type": "uint256"
        }
      ],
      "stateMutability": "view",
      "type": "function"
    },
    {
      "inputs": [
        {
          "internalType": "address",
          "name": "owner",
          "type": "address"
        },
        {
          "internalType": "uint256",
          "name": "index",
          "type": "uint256"
        }
      ],
      "name": "tokenOfOwnerByIndex",
      "outputs": [
        {
          "internalType": "uint256",
          "name": "",
          "type": "uint256"
        }
      ],
      "stateMutability": "view",
      "type": "function"
    },
    {
      "inputs": [
        {
          "internalType": "uint256",
          "name": "tokenId",
          "type": "uint256"
        }
      ],
      "name": "tokenURI",
      "outputs": [
        {
          "internalType": "string",
          "name": "",
          "type": "string"
        }
      ],
      "stateMutability": "view",
      "type": "function"
    },
    {
      "inputs": [
        {
          "internalType": "address",
          "name": "_owner",
          "type": "address"
        }
      ],
      "name": "tokensOfOwner",
      "outputs": [
        {
          "internalType": "uint256[]",
          "name": "",
          "type": "uint256[]"
        }
      ],
      "stateMutability": "view",
      "type": "function"
    },
    {
      "inputs": [],
      "name": "totalSupply",
      "outputs": [
        {
          "internalType": "uint256",
          "name": "",
          "type": "uint256"
        }
      ],
      "stateMutability": "view",
      "type": "function"
    },
    {
      "inputs": [
        {
          "internalType": "address",
          "name": "from",
          "type": "address"
        },
        {
          "internalType": "address",
          "name": "to",
          "type": "address"
        },
        {
          "internalType": "uint256",
          "name": "tokenId",
          "type": "uint256"
        }
      ],
      "name": "transferFrom",
      "outputs": [],
      "stateMutability": "nonpayable",
      "type": "function"
    },
    {
      "inputs": [
        {
          "internalType": "address",
          "name": "newOwner",
          "type": "address"
        }
      ],
      "name": "transferOwnership",
      "outputs": [],
      "stateMutability": "nonpayable",
      "type": "function"
    },
    {
      "inputs": [],
      "name": "withdraw",
      "outputs": [],
      "stateMutability": "payable",
      "type": "function"
    }
  ],
  "bytecode": "0x60806040523480156200001157600080fd5b506040518060400160405280600b81526020017f536d7567446f67654e46540000000000000000000000000000000000000000008152506040518060400160405280600481526020017f534d444700000000000000000000000000000000000000000000000000000000815250816000908051906020019062000096929190620002a5565b508060019080519060200190620000af929190620002a5565b505050620000d2620000c66200010260201b60201c565b6200010a60201b60201c565b620000fc6040518060800160405280605081526020016200433060509139620001d060201b60201c565b6200043d565b600033905090565b6000600a60009054906101000a900473ffffffffffffffffffffffffffffffffffffffff16905081600a60006101000a81548173ffffffffffffffffffffffffffffffffffffffff021916908373ffffffffffffffffffffffffffffffffffffffff1602179055508173ffffffffffffffffffffffffffffffffffffffff168173ffffffffffffffffffffffffffffffffffffffff167f8be0079c531659141344cd1fd0a4f28419497f9722a3daafe3b4186f6b6457e060405160405180910390a35050565b620001e06200010260201b60201c565b73ffffffffffffffffffffffffffffffffffffffff16620002066200027b60201b60201c565b73ffffffffffffffffffffffffffffffffffffffff16146200025f576040517f08c379a000000000000000000000000000000000000000000000000000000000815260040162000256906200037c565b60405180910390fd5b80600b908051906020019062000277929190620002a5565b5050565b6000600a60009054906101000a900473ffffffffffffffffffffffffffffffffffffffff16905090565b828054620002b390620003af565b90600052602060002090601f016020900481019282620002d7576000855562000323565b82601f10620002f257805160ff191683800117855562000323565b8280016001018555821562000323579182015b828111156200032257825182559160200191906001019062000305565b5b50905062000332919062000336565b5090565b5b808211156200035157600081600090555060010162000337565b5090565b6000620003646020836200039e565b9150620003718262000414565b602082019050919050565b60006020820190508181036000830152620003978162000355565b9050919050565b600082825260208201905092915050565b60006002820490506001821680620003c857607f821691505b60208210811415620003df57620003de620003e5565b5b50919050565b7f4e487b7100000000000000000000000000000000000000000000000000000000600052602260045260246000fd5b7f4f776e61626c653a2063616c6c6572206973206e6f7420746865206f776e6572600082015250565b613ee3806200044d6000396000f3fe60806040526004361061019c5760003560e01c806355f804b3116100ec57806395d89b411161008a578063c87b56dd11610064578063c87b56dd1461059a578063d547cfb7146105d7578063e985e9c514610602578063f2fde38b1461063f5761019c565b806395d89b411461051d578063a22cb46514610548578063b88d4fde146105715761019c565b8063715018a6116100c6578063715018a6146104735780638462151c1461048a5780638d859f3e146104c75780638da5cb5b146104f25761019c565b806355f804b3146103d05780636352211e146103f957806370a08231146104365761019c565b806323b872dd116101595780633ccfd60b116101335780633ccfd60b1461035657806342842e0e146103605780634af57f9d146103895780634f6ccce7146103935761019c565b806323b872dd146102c55780632f745c59146102ee57806332cb6b0c1461032b5761019c565b806301ffc9a7146101a157806306fdde03146101de578063081812fc14610209578063095ea7b31461024657806309d42b301461026f57806318160ddd1461029a575b600080fd5b3480156101ad57600080fd5b506101c860048036038101906101c39190612b55565b610668565b6040516101d5919061314d565b60405180910390f35b3480156101ea57600080fd5b506101f36106e2565b6040516102009190613168565b60405180910390f35b34801561021557600080fd5b50610230600480360381019061022b9190612be8565b610774565b60405161023d91906130c4565b60405180910390f35b34801561025257600080fd5b5061026d60048036038101906102689190612b19565b6107f9565b005b34801561027b57600080fd5b50610284610911565b604051610291919061344a565b60405180910390f35b3480156102a657600080fd5b506102af610916565b6040516102bc919061344a565b60405180910390f35b3480156102d157600080fd5b506102ec60048036038101906102e79190612a13565b610923565b005b3480156102fa57600080fd5b5061031560048036038101906103109190612b19565b610983565b604051610322919061344a565b60405180910390f35b34801561033757600080fd5b50610340610a28565b60405161034d919061344a565b60405180910390f35b61035e610a2e565b005b34801561036c57600080fd5b5061038760048036038101906103829190612a13565b610ba2565b005b610391610bc2565b005b34801561039f57600080fd5b506103ba60048036038101906103b59190612be8565b610c6b565b6040516103c7919061344a565b60405180910390f35b3480156103dc57600080fd5b506103f760048036038101906103f29190612ba7565b610d02565b005b34801561040557600080fd5b50610420600480360381019061041b9190612be8565b610d98565b60405161042d91906130c4565b60405180910390f35b34801561044257600080fd5b5061045d600480360381019061045891906129ae565b610e4a565b60405161046a919061344a565b60405180910390f35b34801561047f57600080fd5b50610488610f02565b005b34801561049657600080fd5b506104b160048036038101906104ac91906129ae565b610f8a565b6040516104be919061312b565b60405180910390f35b3480156104d357600080fd5b506104dc611084565b6040516104e9919061344a565b60405180910390f35b3480156104fe57600080fd5b50610507611091565b60405161051491906130c4565b60405180910390f35b34801561052957600080fd5b506105326110bb565b60405161053f9190613168565b60405180910390f35b34801561055457600080fd5b5061056f600480360381019061056a9190612add565b61114d565b005b34801561057d57600080fd5b5061059860048036038101906105939190612a62565b611163565b005b3480156105a657600080fd5b506105c160048036038101906105bc9190612be8565b6111c5565b6040516105ce9190613168565b60405180910390f35b3480156105e357600080fd5b506105ec61126c565b6040516105f99190613168565b60405180910390f35b34801561060e57600080fd5b50610629600480360381019061062491906129d7565b6112fa565b604051610636919061314d565b60405180910390f35b34801561064b57600080fd5b50610666600480360381019061066191906129ae565b61138e565b005b60007f780e9d63000000000000000000000000000000000000000000000000000000007bffffffffffffffffffffffffffffffffffffffffffffffffffffffff1916827bffffffffffffffffffffffffffffffffffffffffffffffffffffffff191614806106db57506106da82611486565b5b9050919050565b6060600080546106f1906136e4565b80601f016020809104026020016040519081016040528092919081815260200182805461071d906136e4565b801561076a5780601f1061073f5761010080835404028352916020019161076a565b820191906000526020600020905b81548152906001019060200180831161074d57829003601f168201915b5050505050905090565b600061077f82611568565b6107be576040517f08c379a00000000000000000000000000000000000000000000000000000000081526004016107b59061334a565b60405180910390fd5b6004600083815260200190815260200160002060009054906101000a900473ffffffffffffffffffffffffffffffffffffffff169050919050565b600061080482610d98565b90508073ffffffffffffffffffffffffffffffffffffffff168373ffffffffffffffffffffffffffffffffffffffff161415610875576040517f08c379a000000000000000000000000000000000000000000000000000000000815260040161086c906133ca565b60405180910390fd5b8073ffffffffffffffffffffffffffffffffffffffff166108946115d4565b73ffffffffffffffffffffffffffffffffffffffff1614806108c357506108c2816108bd6115d4565b6112fa565b5b610902576040517f08c379a00000000000000000000000000000000000000000000000000000000081526004016108f9906132aa565b60405180910390fd5b61090c83836115dc565b505050565b600181565b6000600880549050905090565b61093461092e6115d4565b82611695565b610973576040517f08c379a000000000000000000000000000000000000000000000000000000000815260040161096a9061340a565b60405180910390fd5b61097e838383611773565b505050565b600061098e83610e4a565b82106109cf576040517f08c379a00000000000000000000000000000000000000000000000000000000081526004016109c6906131aa565b60405180910390fd5b600660008473ffffffffffffffffffffffffffffffffffffffff1673ffffffffffffffffffffffffffffffffffffffff168152602001908152602001600020600083815260200190815260200160002054905092915050565b6102bc81565b610a366115d4565b73ffffffffffffffffffffffffffffffffffffffff16610a54611091565b73ffffffffffffffffffffffffffffffffffffffff1614610aaa576040517f08c379a0000000000000000000000000000000000000000000000000000000008152600401610aa19061336a565b60405180910390fd5b600047905060008111610af2576040517f08c379a0000000000000000000000000000000000000000000000000000000008152600401610ae99061332a565b60405180910390fd5b60003373ffffffffffffffffffffffffffffffffffffffff1682604051610b18906130af565b60006040518083038185875af1925050503d8060008114610b55576040519150601f19603f3d011682016040523d82523d6000602084013e610b5a565b606091505b5050905080610b9e576040517f08c379a0000000000000000000000000000000000000000000000000000000008152600401610b95906133ea565b60405180910390fd5b5050565b610bbd83838360405180602001604052806000815250611163565b505050565b6000610bce600c6119cf565b90506102bc8110610c14576040517f08c379a0000000000000000000000000000000000000000000000000000000008152600401610c0b9061318a565b60405180910390fd5b6816c4abbebea0100000341015610c60576040517f08c379a0000000000000000000000000000000000000000000000000000000008152600401610c579061326a565b60405180910390fd5b610c686119dd565b50565b6000610c75610916565b8210610cb6576040517f08c379a0000000000000000000000000000000000000000000000000000000008152600401610cad9061342a565b60405180910390fd5b60088281548110610cf0577f4e487b7100000000000000000000000000000000000000000000000000000000600052603260045260246000fd5b90600052602060002001549050919050565b610d0a6115d4565b73ffffffffffffffffffffffffffffffffffffffff16610d28611091565b73ffffffffffffffffffffffffffffffffffffffff1614610d7e576040517f08c379a0000000000000000000000000000000000000000000000000000000008152600401610d759061336a565b60405180910390fd5b80600b9080519060200190610d949291906127d2565b5050565b6000806002600084815260200190815260200160002060009054906101000a900473ffffffffffffffffffffffffffffffffffffffff169050600073ffffffffffffffffffffffffffffffffffffffff168173ffffffffffffffffffffffffffffffffffffffff161415610e41576040517f08c379a0000000000000000000000000000000000000000000000000000000008152600401610e38906132ea565b60405180910390fd5b80915050919050565b60008073ffffffffffffffffffffffffffffffffffffffff168273ffffffffffffffffffffffffffffffffffffffff161415610ebb576040517f08c379a0000000000000000000000000000000000000000000000000000000008152600401610eb2906132ca565b60405180910390fd5b600360008373ffffffffffffffffffffffffffffffffffffffff1673ffffffffffffffffffffffffffffffffffffffff168152602001908152602001600020549050919050565b610f0a6115d4565b73ffffffffffffffffffffffffffffffffffffffff16610f28611091565b73ffffffffffffffffffffffffffffffffffffffff1614610f7e576040517f08c379a0000000000000000000000000000000000000000000000000000000008152600401610f759061336a565b60405180910390fd5b610f886000611a02565b565b60606000610f9783610e4a565b905060008167ffffffffffffffff811115610fdb577f4e487b7100000000000000000000000000000000000000000000000000000000600052604160045260246000fd5b6040519080825280602002602001820160405280156110095781602001602082028036833780820191505090505b50905060005b82811015611079576110218582610983565b82828151811061105a577f4e487b7100000000000000000000000000000000000000000000000000000000600052603260045260246000fd5b602002602001018181525050808061107190613747565b91505061100f565b508092505050919050565b6816c4abbebea010000081565b6000600a60009054906101000a900473ffffffffffffffffffffffffffffffffffffffff16905090565b6060600180546110ca906136e4565b80601f01602080910402602001604051908101604052809291908181526020018280546110f6906136e4565b80156111435780601f1061111857610100808354040283529160200191611143565b820191906000526020600020905b81548152906001019060200180831161112657829003601f168201915b5050505050905090565b61115f6111586115d4565b8383611ac8565b5050565b61117461116e6115d4565b83611695565b6111b3576040517f08c379a00000000000000000000000000000000000000000000000000000000081526004016111aa9061340a565b60405180910390fd5b6111bf84848484611c35565b50505050565b60606111d082611568565b61120f576040517f08c379a0000000000000000000000000000000000000000000000000000000008152600401611206906133aa565b60405180910390fd5b6000611219611c91565b905060008151116112395760405180602001604052806000815250611264565b8061124384611d23565b60405160200161125492919061308b565b6040516020818303038152906040525b915050919050565b600b8054611279906136e4565b80601f01602080910402602001604051908101604052809291908181526020018280546112a5906136e4565b80156112f25780601f106112c7576101008083540402835291602001916112f2565b820191906000526020600020905b8154815290600101906020018083116112d557829003601f168201915b505050505081565b6000600560008473ffffffffffffffffffffffffffffffffffffffff1673ffffffffffffffffffffffffffffffffffffffff16815260200190815260200160002060008373ffffffffffffffffffffffffffffffffffffffff1673ffffffffffffffffffffffffffffffffffffffff16815260200190815260200160002060009054906101000a900460ff16905092915050565b6113966115d4565b73ffffffffffffffffffffffffffffffffffffffff166113b4611091565b73ffffffffffffffffffffffffffffffffffffffff161461140a576040517f08c379a00000000000000000000000000000000000000000000000000000000081526004016114019061336a565b60405180910390fd5b600073ffffffffffffffffffffffffffffffffffffffff168173ffffffffffffffffffffffffffffffffffffffff16141561147a576040517f08c379a0000000000000000000000000000000000000000000000000000000008152600401611471906131ea565b60405180910390fd5b61148381611a02565b50565b60007f80ac58cd000000000000000000000000000000000000000000000000000000007bffffffffffffffffffffffffffffffffffffffffffffffffffffffff1916827bffffffffffffffffffffffffffffffffffffffffffffffffffffffff1916148061155157507f5b5e139f000000000000000000000000000000000000000000000000000000007bffffffffffffffffffffffffffffffffffffffffffffffffffffffff1916827bffffffffffffffffffffffffffffffffffffffffffffffffffffffff1916145b80611561575061156082611ed0565b5b9050919050565b60008073ffffffffffffffffffffffffffffffffffffffff166002600084815260200190815260200160002060009054906101000a900473ffffffffffffffffffffffffffffffffffffffff1673ffffffffffffffffffffffffffffffffffffffff1614159050919050565b600033905090565b816004600083815260200190815260200160002060006101000a81548173ffffffffffffffffffffffffffffffffffffffff021916908373ffffffffffffffffffffffffffffffffffffffff160217905550808273ffffffffffffffffffffffffffffffffffffffff1661164f83610d98565b73ffffffffffffffffffffffffffffffffffffffff167f8c5be1e5ebec7d5bd14f71427d1e84f3dd0314c0f7b2291e5b200ac8c7c3b92560405160405180910390a45050565b60006116a082611568565b6116df576040517f08c379a00000000000000000000000000000000000000000000000000000000081526004016116d69061328a565b60405180910390fd5b60006116ea83610d98565b90508073ffffffffffffffffffffffffffffffffffffffff168473ffffffffffffffffffffffffffffffffffffffff16148061175957508373ffffffffffffffffffffffffffffffffffffffff1661174184610774565b73ffffffffffffffffffffffffffffffffffffffff16145b8061176a575061176981856112fa565b5b91505092915050565b8273ffffffffffffffffffffffffffffffffffffffff1661179382610d98565b73ffffffffffffffffffffffffffffffffffffffff16146117e9576040517f08c379a00000000000000000000000000000000000000000000000000000000081526004016117e09061338a565b60405180910390fd5b600073ffffffffffffffffffffffffffffffffffffffff168273ffffffffffffffffffffffffffffffffffffffff161415611859576040517f08c379a00000000000000000000000000000000000000000000000000000000081526004016118509061322a565b60405180910390fd5b611864838383611f3a565b61186f6000826115dc565b6001600360008573ffffffffffffffffffffffffffffffffffffffff1673ffffffffffffffffffffffffffffffffffffffff16815260200190815260200160002060008282546118bf91906135fa565b925050819055506001600360008473ffffffffffffffffffffffffffffffffffffffff1673ffffffffffffffffffffffffffffffffffffffff16815260200190815260200160002060008282546119169190613573565b92505081905550816002600083815260200190815260200160002060006101000a81548173ffffffffffffffffffffffffffffffffffffffff021916908373ffffffffffffffffffffffffffffffffffffffff160217905550808273ffffffffffffffffffffffffffffffffffffffff168473ffffffffffffffffffffffffffffffffffffffff167fddf252ad1be2c89b69c2b068fc378daa952ba7f163c4a11628f55a4df523b3ef60405160405180910390a4505050565b600081600001549050919050565b60006119e9600c6119cf565b90506119f5338261204e565b6119ff600c61206c565b50565b6000600a60009054906101000a900473ffffffffffffffffffffffffffffffffffffffff16905081600a60006101000a81548173ffffffffffffffffffffffffffffffffffffffff021916908373ffffffffffffffffffffffffffffffffffffffff1602179055508173ffffffffffffffffffffffffffffffffffffffff168173ffffffffffffffffffffffffffffffffffffffff167f8be0079c531659141344cd1fd0a4f28419497f9722a3daafe3b4186f6b6457e060405160405180910390a35050565b8173ffffffffffffffffffffffffffffffffffffffff168373ffffffffffffffffffffffffffffffffffffffff161415611b37576040517f08c379a0000000000000000000000000000000000000000000000000000000008152600401611b2e9061324a565b60405180910390fd5b80600560008573ffffffffffffffffffffffffffffffffffffffff1673ffffffffffffffffffffffffffffffffffffffff16815260200190815260200160002060008473ffffffffffffffffffffffffffffffffffffffff1673ffffffffffffffffffffffffffffffffffffffff16815260200190815260200160002060006101000a81548160ff0219169083151502179055508173ffffffffffffffffffffffffffffffffffffffff168373ffffffffffffffffffffffffffffffffffffffff167f17307eab39ab6107e8899845ad3d59bd9653f200f220920489ca2b5937696c3183604051611c28919061314d565b60405180910390a3505050565b611c40848484611773565b611c4c84848484612082565b611c8b576040517f08c379a0000000000000000000000000000000000000000000000000000000008152600401611c82906131ca565b60405180910390fd5b50505050565b6060600b8054611ca0906136e4565b80601f0160208091040260200160405190810160405280929190818152602001828054611ccc906136e4565b8015611d195780601f10611cee57610100808354040283529160200191611d19565b820191906000526020600020905b815481529060010190602001808311611cfc57829003601f168201915b5050505050905090565b60606000821415611d6b576040518060400160405280600181526020017f30000000000000000000000000000000000000000000000000000000000000008152509050611ecb565b600082905060005b60008214611d9d578080611d8690613747565b915050600a82611d9691906135c9565b9150611d73565b60008167ffffffffffffffff811115611ddf577f4e487b7100000000000000000000000000000000000000000000000000000000600052604160045260246000fd5b6040519080825280601f01601f191660200182016040528015611e115781602001600182028036833780820191505090505b5090505b60008514611ec457600182611e2a91906135fa565b9150600a85611e399190613790565b6030611e459190613573565b60f81b818381518110611e81577f4e487b7100000000000000000000000000000000000000000000000000000000600052603260045260246000fd5b60200101907effffffffffffffffffffffffffffffffffffffffffffffffffffffffffffff1916908160001a905350600a85611ebd91906135c9565b9450611e15565b8093505050505b919050565b60007f01ffc9a7000000000000000000000000000000000000000000000000000000007bffffffffffffffffffffffffffffffffffffffffffffffffffffffff1916827bffffffffffffffffffffffffffffffffffffffffffffffffffffffff1916149050919050565b611f45838383612219565b600073ffffffffffffffffffffffffffffffffffffffff168373ffffffffffffffffffffffffffffffffffffffff161415611f8857611f838161221e565b611fc7565b8173ffffffffffffffffffffffffffffffffffffffff168373ffffffffffffffffffffffffffffffffffffffff1614611fc657611fc58382612267565b5b5b600073ffffffffffffffffffffffffffffffffffffffff168273ffffffffffffffffffffffffffffffffffffffff16141561200a57612005816123d4565b612049565b8273ffffffffffffffffffffffffffffffffffffffff168273ffffffffffffffffffffffffffffffffffffffff1614612048576120478282612517565b5b5b505050565b612068828260405180602001604052806000815250612596565b5050565b6001816000016000828254019250508190555050565b60006120a38473ffffffffffffffffffffffffffffffffffffffff166125f1565b1561220c578373ffffffffffffffffffffffffffffffffffffffff1663150b7a026120cc6115d4565b8786866040518563ffffffff1660e01b81526004016120ee94939291906130df565b602060405180830381600087803b15801561210857600080fd5b505af192505050801561213957506040513d601f19601f820116820180604052508101906121369190612b7e565b60015b6121bc573d8060008114612169576040519150601f19603f3d011682016040523d82523d6000602084013e61216e565b606091505b506000815114156121b4576040517f08c379a00000000000000000000000000000000000000000000000000000000081526004016121ab906131ca565b60405180910390fd5b805181602001fd5b63150b7a0260e01b7bffffffffffffffffffffffffffffffffffffffffffffffffffffffff1916817bffffffffffffffffffffffffffffffffffffffffffffffffffffffff191614915050612211565b600190505b949350505050565b505050565b6008805490506009600083815260200190815260200160002081905550600881908060018154018082558091505060019003906000526020600020016000909190919091505550565b6000600161227484610e4a565b61227e91906135fa565b9050600060076000848152602001908152602001600020549050818114612363576000600660008673ffffffffffffffffffffffffffffffffffffffff1673ffffffffffffffffffffffffffffffffffffffff168152602001908152602001600020600084815260200190815260200160002054905080600660008773ffffffffffffffffffffffffffffffffffffffff1673ffffffffffffffffffffffffffffffffffffffff168152602001908152602001600020600084815260200190815260200160002081905550816007600083815260200190815260200160002081905550505b6007600084815260200190815260200160002060009055600660008573ffffffffffffffffffffffffffffffffffffffff1673ffffffffffffffffffffffffffffffffffffffff16815260200190815260200160002060008381526020019081526020016000206000905550505050565b600060016008805490506123e891906135fa565b905060006009600084815260200190815260200160002054905060006008838154811061243e577f4e487b7100000000000000000000000000000000000000000000000000000000600052603260045260246000fd5b906000526020600020015490508060088381548110612486577f4e487b7100000000000000000000000000000000000000000000000000000000600052603260045260246000fd5b9060005260206000200181905550816009600083815260200190815260200160002081905550600960008581526020019081526020016000206000905560088054806124fb577f4e487b7100000000000000000000000000000000000000000000000000000000600052603160045260246000fd5b6001900381819060005260206000200160009055905550505050565b600061252283610e4a565b905081600660008573ffffffffffffffffffffffffffffffffffffffff1673ffffffffffffffffffffffffffffffffffffffff168152602001908152602001600020600083815260200190815260200160002081905550806007600084815260200190815260200160002081905550505050565b6125a08383612604565b6125ad6000848484612082565b6125ec576040517f08c379a00000000000000000000000000000000000000000000000000000000081526004016125e3906131ca565b60405180910390fd5b505050565b600080823b905060008111915050919050565b600073ffffffffffffffffffffffffffffffffffffffff168273ffffffffffffffffffffffffffffffffffffffff161415612674576040517f08c379a000000000000000000000000000000000000000000000000000000000815260040161266b9061330a565b60405180910390fd5b61267d81611568565b156126bd576040517f08c379a00000000000000000000000000000000000000000000000000000000081526004016126b49061320a565b60405180910390fd5b6126c960008383611f3a565b6001600360008473ffffffffffffffffffffffffffffffffffffffff1673ffffffffffffffffffffffffffffffffffffffff16815260200190815260200160002060008282546127199190613573565b92505081905550816002600083815260200190815260200160002060006101000a81548173ffffffffffffffffffffffffffffffffffffffff021916908373ffffffffffffffffffffffffffffffffffffffff160217905550808273ffffffffffffffffffffffffffffffffffffffff16600073ffffffffffffffffffffffffffffffffffffffff167fddf252ad1be2c89b69c2b068fc378daa952ba7f163c4a11628f55a4df523b3ef60405160405180910390a45050565b8280546127de906136e4565b90600052602060002090601f0160209004810192826128005760008555612847565b82601f1061281957805160ff1916838001178555612847565b82800160010185558215612847579182015b8281111561284657825182559160200191906001019061282b565b5b5090506128549190612858565b5090565b5b80821115612871576000816000905550600101612859565b5090565b60006128886128838461348a565b613465565b9050828152602081018484840111156128a057600080fd5b6128ab8482856136a2565b509392505050565b60006128c66128c1846134bb565b613465565b9050828152602081018484840111156128de57600080fd5b6128e98482856136a2565b509392505050565b60008135905061290081613e51565b92915050565b60008135905061291581613e68565b92915050565b60008135905061292a81613e7f565b92915050565b60008151905061293f81613e7f565b92915050565b600082601f83011261295657600080fd5b8135612966848260208601612875565b91505092915050565b600082601f83011261298057600080fd5b81356129908482602086016128b3565b91505092915050565b6000813590506129a881613e96565b92915050565b6000602082840312156129c057600080fd5b60006129ce848285016128f1565b91505092915050565b600080604083850312156129ea57600080fd5b60006129f8858286016128f1565b9250506020612a09858286016128f1565b9150509250929050565b600080600060608486031215612a2857600080fd5b6000612a36868287016128f1565b9350506020612a47868287016128f1565b9250506040612a5886828701612999565b9150509250925092565b60008060008060808587031215612a7857600080fd5b6000612a86878288016128f1565b9450506020612a97878288016128f1565b9350506040612aa887828801612999565b925050606085013567ffffffffffffffff811115612ac557600080fd5b612ad187828801612945565b91505092959194509250565b60008060408385031215612af057600080fd5b6000612afe858286016128f1565b9250506020612b0f85828601612906565b9150509250929050565b60008060408385031215612b2c57600080fd5b6000612b3a858286016128f1565b9250506020612b4b85828601612999565b9150509250929050565b600060208284031215612b6757600080fd5b6000612b758482850161291b565b91505092915050565b600060208284031215612b9057600080fd5b6000612b9e84828501612930565b91505092915050565b600060208284031215612bb957600080fd5b600082013567ffffffffffffffff811115612bd357600080fd5b612bdf8482850161296f565b91505092915050565b600060208284031215612bfa57600080fd5b6000612c0884828501612999565b91505092915050565b6000612c1d838361306d565b60208301905092915050565b612c328161362e565b82525050565b6000612c43826134fc565b612c4d818561352a565b9350612c58836134ec565b8060005b83811015612c89578151612c708882612c11565b9750612c7b8361351d565b925050600181019050612c5c565b5085935050505092915050565b612c9f81613640565b82525050565b6000612cb082613507565b612cba818561353b565b9350612cca8185602086016136b1565b612cd38161387d565b840191505092915050565b6000612ce982613512565b612cf38185613557565b9350612d038185602086016136b1565b612d0c8161387d565b840191505092915050565b6000612d2282613512565b612d2c8185613568565b9350612d3c8185602086016136b1565b80840191505092915050565b6000612d55601083613557565b9150612d608261388e565b602082019050919050565b6000612d78602b83613557565b9150612d83826138b7565b604082019050919050565b6000612d9b603283613557565b9150612da682613906565b604082019050919050565b6000612dbe602683613557565b9150612dc982613955565b604082019050919050565b6000612de1601c83613557565b9150612dec826139a4565b602082019050919050565b6000612e04602483613557565b9150612e0f826139cd565b604082019050919050565b6000612e27601983613557565b9150612e3282613a1c565b602082019050919050565b6000612e4a602283613557565b9150612e5582613a45565b604082019050919050565b6000612e6d602c83613557565b9150612e7882613a94565b604082019050919050565b6000612e90603883613557565b9150612e9b82613ae3565b604082019050919050565b6000612eb3602a83613557565b9150612ebe82613b32565b604082019050919050565b6000612ed6602983613557565b9150612ee182613b81565b604082019050919050565b6000612ef9602083613557565b9150612f0482613bd0565b602082019050919050565b6000612f1c601983613557565b9150612f2782613bf9565b602082019050919050565b6000612f3f602c83613557565b9150612f4a82613c22565b604082019050919050565b6000612f62602083613557565b9150612f6d82613c71565b602082019050919050565b6000612f85602983613557565b9150612f9082613c9a565b604082019050919050565b6000612fa8602f83613557565b9150612fb382613ce9565b604082019050919050565b6000612fcb602183613557565b9150612fd682613d38565b604082019050919050565b6000612fee60008361354c565b9150612ff982613d87565b600082019050919050565b6000613011601083613557565b915061301c82613d8a565b602082019050919050565b6000613034603183613557565b915061303f82613db3565b604082019050919050565b6000613057602c83613557565b915061306282613e02565b604082019050919050565b61307681613698565b82525050565b61308581613698565b82525050565b60006130978285612d17565b91506130a38284612d17565b91508190509392505050565b60006130ba82612fe1565b9150819050919050565b60006020820190506130d96000830184612c29565b92915050565b60006080820190506130f46000830187612c29565b6131016020830186612c29565b61310e604083018561307c565b81810360608301526131208184612ca5565b905095945050505050565b600060208201905081810360008301526131458184612c38565b905092915050565b60006020820190506131626000830184612c96565b92915050565b600060208201905081810360008301526131828184612cde565b905092915050565b600060208201905081810360008301526131a381612d48565b9050919050565b600060208201905081810360008301526131c381612d6b565b9050919050565b600060208201905081810360008301526131e381612d8e565b9050919050565b6000602082019050818103600083015261320381612db1565b9050919050565b6000602082019050818103600083015261322381612dd4565b9050919050565b6000602082019050818103600083015261324381612df7565b9050919050565b6000602082019050818103600083015261326381612e1a565b9050919050565b6000602082019050818103600083015261328381612e3d565b9050919050565b600060208201905081810360008301526132a381612e60565b9050919050565b600060208201905081810360008301526132c381612e83565b9050919050565b600060208201905081810360008301526132e381612ea6565b9050919050565b6000602082019050818103600083015261330381612ec9565b9050919050565b6000602082019050818103600083015261332381612eec565b9050919050565b6000602082019050818103600083015261334381612f0f565b9050919050565b6000602082019050818103600083015261336381612f32565b9050919050565b6000602082019050818103600083015261338381612f55565b9050919050565b600060208201905081810360008301526133a381612f78565b9050919050565b600060208201905081810360008301526133c381612f9b565b9050919050565b600060208201905081810360008301526133e381612fbe565b9050919050565b6000602082019050818103600083015261340381613004565b9050919050565b6000602082019050818103600083015261342381613027565b9050919050565b600060208201905081810360008301526134438161304a565b9050919050565b600060208201905061345f600083018461307c565b92915050565b600061346f613480565b905061347b8282613716565b919050565b6000604051905090565b600067ffffffffffffffff8211156134a5576134a461384e565b5b6134ae8261387d565b9050602081019050919050565b600067ffffffffffffffff8211156134d6576134d561384e565b5b6134df8261387d565b9050602081019050919050565b6000819050602082019050919050565b600081519050919050565b600081519050919050565b600081519050919050565b6000602082019050919050565b600082825260208201905092915050565b600082825260208201905092915050565b600081905092915050565b600082825260208201905092915050565b600081905092915050565b600061357e82613698565b915061358983613698565b9250827fffffffffffffffffffffffffffffffffffffffffffffffffffffffffffffffff038211156135be576135bd6137c1565b5b828201905092915050565b60006135d482613698565b91506135df83613698565b9250826135ef576135ee6137f0565b5b828204905092915050565b600061360582613698565b915061361083613698565b925082821015613623576136226137c1565b5b828203905092915050565b600061363982613678565b9050919050565b60008115159050919050565b60007fffffffff0000000000000000000000000000000000000000000000000000000082169050919050565b600073ffffffffffffffffffffffffffffffffffffffff82169050919050565b6000819050919050565b82818337600083830152505050565b60005b838110156136cf5780820151818401526020810190506136b4565b838111156136de576000848401525b50505050565b600060028204905060018216806136fc57607f821691505b602082108114156137105761370f61381f565b5b50919050565b61371f8261387d565b810181811067ffffffffffffffff8211171561373e5761373d61384e565b5b80604052505050565b600061375282613698565b91507fffffffffffffffffffffffffffffffffffffffffffffffffffffffffffffffff821415613785576137846137c1565b5b600182019050919050565b600061379b82613698565b91506137a683613698565b9250826137b6576137b56137f0565b5b828206905092915050565b7f4e487b7100000000000000000000000000000000000000000000000000000000600052601160045260246000fd5b7f4e487b7100000000000000000000000000000000000000000000000000000000600052601260045260246000fd5b7f4e487b7100000000000000000000000000000000000000000000000000000000600052602260045260246000fd5b7f4e487b7100000000000000000000000000000000000000000000000000000000600052604160045260246000fd5b6000601f19601f8301169050919050565b7f4e6f7420656e6f756768204e4654732100000000000000000000000000000000600082015250565b7f455243373231456e756d657261626c653a206f776e657220696e646578206f7560008201527f74206f6620626f756e6473000000000000000000000000000000000000000000602082015250565b7f4552433732313a207472616e7366657220746f206e6f6e20455243373231526560008201527f63656976657220696d706c656d656e7465720000000000000000000000000000602082015250565b7f4f776e61626c653a206e6577206f776e657220697320746865207a65726f206160008201527f6464726573730000000000000000000000000000000000000000000000000000602082015250565b7f4552433732313a20746f6b656e20616c7265616479206d696e74656400000000600082015250565b7f4552433732313a207472616e7366657220746f20746865207a65726f2061646460008201527f7265737300000000000000000000000000000000000000000000000000000000602082015250565b7f4552433732313a20617070726f766520746f2063616c6c657200000000000000600082015250565b7f4e6f7420656e6f75676820657468657220746f207075726368617365204e465460008201527f732e000000000000000000000000000000000000000000000000000000000000602082015250565b7f4552433732313a206f70657261746f7220717565727920666f72206e6f6e657860008201527f697374656e7420746f6b656e0000000000000000000000000000000000000000602082015250565b7f4552433732313a20617070726f76652063616c6c6572206973206e6f74206f7760008201527f6e6572206e6f7220617070726f76656420666f7220616c6c0000000000000000602082015250565b7f4552433732313a2062616c616e636520717565727920666f7220746865207a6560008201527f726f206164647265737300000000000000000000000000000000000000000000602082015250565b7f4552433732313a206f776e657220717565727920666f72206e6f6e657869737460008201527f656e7420746f6b656e0000000000000000000000000000000000000000000000602082015250565b7f4552433732313a206d696e7420746f20746865207a65726f2061646472657373600082015250565b7f4e6f206574686572206c65667420746f20776974686472617700000000000000600082015250565b7f4552433732313a20617070726f76656420717565727920666f72206e6f6e657860008201527f697374656e7420746f6b656e0000000000000000000000000000000000000000602082015250565b7f4f776e61626c653a2063616c6c6572206973206e6f7420746865206f776e6572600082015250565b7f4552433732313a207472616e73666572206f6620746f6b656e2074686174206960008201527f73206e6f74206f776e0000000000000000000000000000000000000000000000602082015250565b7f4552433732314d657461646174613a2055524920717565727920666f72206e6f60008201527f6e6578697374656e7420746f6b656e0000000000000000000000000000000000602082015250565b7f4552433732313a20617070726f76616c20746f2063757272656e74206f776e6560008201527f7200000000000000000000000000000000000000000000000000000000000000602082015250565b50565b7f5472616e73666572206661696c65642e00000000000000000000000000000000600082015250565b7f4552433732313a207472616e736665722063616c6c6572206973206e6f74206f60008201527f776e6572206e6f7220617070726f766564000000000000000000000000000000602082015250565b7f455243373231456e756d657261626c653a20676c6f62616c20696e646578206f60008201527f7574206f6620626f756e64730000000000000000000000000000000000000000602082015250565b613e5a8161362e565b8114613e6557600080fd5b50565b613e7181613640565b8114613e7c57600080fd5b50565b613e888161364c565b8114613e9357600080fd5b50565b613e9f81613698565b8114613eaa57600080fd5b5056fea2646970667358221220ee684dad6a62714dc893e555944c4f7a7053423ba1d51932e1dc51596db5147264736f6c6343000804003368747470733a2f2f676174657761792e70696e6174612e636c6f75642f697066732f516d614c6f5445517a6a6b5578383974517a574d636d4339374267526733314b487243477a5944646131545a7947",
  "linkReferences": {},
  "deployedLinkReferences": {}
}