{
  "_format": "hh-sol-artifact-1",
  "contractName": "SmugDogeNFT",
  "sourceName": "contracts/SmugDoge.sol",
  "abi": [
    {
      "inputs": [],
      "stateMutability": "nonpayable",
      "type": "constructor"
    },
    {
      "anonymous": false,
      "inputs": [
        {
          "indexed": true,
          "internalType": "address",
          "name": "owner",
          "type": "address"
        },
        {
          "indexed": true,
          "internalType": "address",
          "name": "approved",
          "type": "address"
        },
        {
          "indexed": true,
          "internalType": "uint256",
          "name": "tokenId",
          "type": "uint256"
        }
      ],
      "name": "Approval",
      "type": "event"
    },
    {
      "anonymous": false,
      "inputs": [
        {
          "indexed": true,
          "internalType": "address",
          "name": "owner",
          "type": "address"
        },
        {
          "indexed": true,
          "internalType": "address",
          "name": "operator",
          "type": "address"
        },
        {
          "indexed": false,
          "internalType": "bool",
          "name": "approved",
          "type": "bool"
        }
      ],
      "name": "ApprovalForAll",
      "type": "event"
    },
    {
      "anonymous": false,
      "inputs": [
        {
          "indexed": true,
          "internalType": "address",
          "name": "previousOwner",
          "type": "address"
        },
        {
          "indexed": true,
          "internalType": "address",
          "name": "newOwner",
          "type": "address"
        }
      ],
      "name": "OwnershipTransferred",
      "type": "event"
    },
    {
      "anonymous": false,
      "inputs": [
        {
          "indexed": true,
          "internalType": "address",
          "name": "from",
          "type": "address"
        },
        {
          "indexed": true,
          "internalType": "address",
          "name": "to",
          "type": "address"
        },
        {
          "indexed": true,
          "internalType": "uint256",
          "name": "tokenId",
          "type": "uint256"
        }
      ],
      "name": "Transfer",
      "type": "event"
    },
    {
      "inputs": [],
      "name": "MAX_PER_MINT",
      "outputs": [
        {
          "internalType": "uint256",
          "name": "",
          "type": "uint256"
        }
      ],
      "stateMutability": "view",
      "type": "function"
    },
    {
      "inputs": [],
      "name": "MAX_SUPPLY",
      "outputs": [
        {
          "internalType": "uint256",
          "name": "",
          "type": "uint256"
        }
      ],
      "stateMutability": "view",
      "type": "function"
    },
    {
      "inputs": [],
      "name": "PRICE1",
      "outputs": [
        {
          "internalType": "uint256",
          "name": "",
          "type": "uint256"
        }
      ],
      "stateMutability": "view",
      "type": "function"
    },
    {
      "inputs": [],
      "name": "PRICE2",
      "outputs": [
        {
          "internalType": "uint256",
          "name": "",
          "type": "uint256"
        }
      ],
      "stateMutability": "view",
      "type": "function"
    },
    {
      "inputs": [],
      "name": "PRICE3",
      "outputs": [
        {
          "internalType": "uint256",
          "name": "",
          "type": "uint256"
        }
      ],
      "stateMutability": "view",
      "type": "function"
    },
    {
      "inputs": [
        {
          "internalType": "address",
          "name": "to",
          "type": "address"
        },
        {
          "internalType": "uint256",
          "name": "tokenId",
          "type": "uint256"
        }
      ],
      "name": "approve",
      "outputs": [],
      "stateMutability": "nonpayable",
      "type": "function"
    },
    {
      "inputs": [
        {
          "internalType": "address",
          "name": "owner",
          "type": "address"
        }
      ],
      "name": "balanceOf",
      "outputs": [
        {
          "internalType": "uint256",
          "name": "",
          "type": "uint256"
        }
      ],
      "stateMutability": "view",
      "type": "function"
    },
    {
      "inputs": [],
      "name": "baseTokenURI",
      "outputs": [
        {
          "internalType": "string",
          "name": "",
          "type": "string"
        }
      ],
      "stateMutability": "view",
      "type": "function"
    },
    {
      "inputs": [
        {
          "internalType": "uint256",
          "name": "tokenId",
          "type": "uint256"
        }
      ],
      "name": "getApproved",
      "outputs": [
        {
          "internalType": "address",
          "name": "",
          "type": "address"
        }
      ],
      "stateMutability": "view",
      "type": "function"
    },
    {
      "inputs": [],
      "name": "getCurrentSupply",
      "outputs": [
        {
          "internalType": "uint256",
          "name": "",
          "type": "uint256"
        }
      ],
      "stateMutability": "view",
      "type": "function"
    },
    {
      "inputs": [
        {
          "internalType": "address",
          "name": "owner",
          "type": "address"
        },
        {
          "internalType": "address",
          "name": "operator",
          "type": "address"
        }
      ],
      "name": "isApprovedForAll",
      "outputs": [
        {
          "internalType": "bool",
          "name": "",
          "type": "bool"
        }
      ],
      "stateMutability": "view",
      "type": "function"
    },
    {
      "inputs": [
        {
          "internalType": "uint256",
          "name": "number",
          "type": "uint256"
        }
      ],
      "name": "mintNFTs",
      "outputs": [],
      "stateMutability": "payable",
      "type": "function"
    },
    {
      "inputs": [],
      "name": "name",
      "outputs": [
        {
          "internalType": "string",
          "name": "",
          "type": "string"
        }
      ],
      "stateMutability": "view",
      "type": "function"
    },
    {
      "inputs": [],
      "name": "owner",
      "outputs": [
        {
          "internalType": "address",
          "name": "",
          "type": "address"
        }
      ],
      "stateMutability": "view",
      "type": "function"
    },
    {
      "inputs": [
        {
          "internalType": "uint256",
          "name": "tokenId",
          "type": "uint256"
        }
      ],
      "name": "ownerOf",
      "outputs": [
        {
          "internalType": "address",
          "name": "",
          "type": "address"
        }
      ],
      "stateMutability": "view",
      "type": "function"
    },
    {
      "inputs": [],
      "name": "renounceOwnership",
      "outputs": [],
      "stateMutability": "nonpayable",
      "type": "function"
    },
    {
      "inputs": [
        {
          "internalType": "address",
          "name": "from",
          "type": "address"
        },
        {
          "internalType": "address",
          "name": "to",
          "type": "address"
        },
        {
          "internalType": "uint256",
          "name": "tokenId",
          "type": "uint256"
        }
      ],
      "name": "safeTransferFrom",
      "outputs": [],
      "stateMutability": "nonpayable",
      "type": "function"
    },
    {
      "inputs": [
        {
          "internalType": "address",
          "name": "from",
          "type": "address"
        },
        {
          "internalType": "address",
          "name": "to",
          "type": "address"
        },
        {
          "internalType": "uint256",
          "name": "tokenId",
          "type": "uint256"
        },
        {
          "internalType": "bytes",
          "name": "_data",
          "type": "bytes"
        }
      ],
      "name": "safeTransferFrom",
      "outputs": [],
      "stateMutability": "nonpayable",
      "type": "function"
    },
    {
      "inputs": [
        {
          "internalType": "address",
          "name": "operator",
          "type": "address"
        },
        {
          "internalType": "bool",
          "name": "approved",
          "type": "bool"
        }
      ],
      "name": "setApprovalForAll",
      "outputs": [],
      "stateMutability": "nonpayable",
      "type": "function"
    },
    {
      "inputs": [
        {
          "internalType": "string",
          "name": "_baseTokenURI",
          "type": "string"
        }
      ],
      "name": "setBaseURI",
      "outputs": [],
      "stateMutability": "nonpayable",
      "type": "function"
    },
    {
      "inputs": [
        {
          "internalType": "bytes4",
          "name": "interfaceId",
          "type": "bytes4"
        }
      ],
      "name": "supportsInterface",
      "outputs": [
        {
          "internalType": "bool",
          "name": "",
          "type": "bool"
        }
      ],
      "stateMutability": "view",
      "type": "function"
    },
    {
      "inputs": [],
      "name": "symbol",
      "outputs": [
        {
          "internalType": "string",
          "name": "",
          "type": "string"
        }
      ],
      "stateMutability": "view",
      "type": "function"
    },
    {
      "inputs": [
        {
          "internalType": "uint256",
          "name": "index",
          "type": "uint256"
        }
      ],
      "name": "tokenByIndex",
      "outputs": [
        {
          "internalType": "uint256",
          "name": "",
          "type": "uint256"
        }
      ],
      "stateMutability": "view",
      "type": "function"
    },
    {
      "inputs": [
        {
          "internalType": "uint256",
          "name": "",
          "type": "uint256"
        }
      ],
      "name": "tokenMinted",
      "outputs": [
        {
          "internalType": "bool",
          "name": "",
          "type": "bool"
        }
      ],
      "stateMutability": "view",
      "type": "function"
    },
    {
      "inputs": [
        {
          "internalType": "address",
          "name": "owner",
          "type": "address"
        },
        {
          "internalType": "uint256",
          "name": "index",
          "type": "uint256"
        }
      ],
      "name": "tokenOfOwnerByIndex",
      "outputs": [
        {
          "internalType": "uint256",
          "name": "",
          "type": "uint256"
        }
      ],
      "stateMutability": "view",
      "type": "function"
    },
    {
      "inputs": [
        {
          "internalType": "uint256",
          "name": "tokenId",
          "type": "uint256"
        }
      ],
      "name": "tokenURI",
      "outputs": [
        {
          "internalType": "string",
          "name": "",
          "type": "string"
        }
      ],
      "stateMutability": "view",
      "type": "function"
    },
    {
      "inputs": [
        {
          "internalType": "address",
          "name": "_owner",
          "type": "address"
        }
      ],
      "name": "tokensOfOwner",
      "outputs": [
        {
          "internalType": "uint256[]",
          "name": "",
          "type": "uint256[]"
        }
      ],
      "stateMutability": "view",
      "type": "function"
    },
    {
      "inputs": [],
      "name": "totalSupply",
      "outputs": [
        {
          "internalType": "uint256",
          "name": "",
          "type": "uint256"
        }
      ],
      "stateMutability": "view",
      "type": "function"
    },
    {
      "inputs": [
        {
          "internalType": "address",
          "name": "from",
          "type": "address"
        },
        {
          "internalType": "address",
          "name": "to",
          "type": "address"
        },
        {
          "internalType": "uint256",
          "name": "tokenId",
          "type": "uint256"
        }
      ],
      "name": "transferFrom",
      "outputs": [],
      "stateMutability": "nonpayable",
      "type": "function"
    },
    {
      "inputs": [
        {
          "internalType": "address",
          "name": "newOwner",
          "type": "address"
        }
      ],
      "name": "transferOwnership",
      "outputs": [],
      "stateMutability": "nonpayable",
      "type": "function"
    },
    {
      "inputs": [],
      "name": "withdraw",
      "outputs": [],
      "stateMutability": "payable",
      "type": "function"
    }
  ],
  "bytecode": "0x60806040523480156200001157600080fd5b506040518060400160405280600b81526020017f536d7567446f67654e46540000000000000000000000000000000000000000008152506040518060400160405280600481526020017f534d444700000000000000000000000000000000000000000000000000000000815250816000908051906020019062000096929190620002a5565b508060019080519060200190620000af929190620002a5565b505050620000d2620000c66200010260201b60201c565b6200010a60201b60201c565b620000fc6040518060800160405280605081526020016200467e60509139620001d060201b60201c565b6200043d565b600033905090565b6000600a60009054906101000a900473ffffffffffffffffffffffffffffffffffffffff16905081600a60006101000a81548173ffffffffffffffffffffffffffffffffffffffff021916908373ffffffffffffffffffffffffffffffffffffffff1602179055508173ffffffffffffffffffffffffffffffffffffffff168173ffffffffffffffffffffffffffffffffffffffff167f8be0079c531659141344cd1fd0a4f28419497f9722a3daafe3b4186f6b6457e060405160405180910390a35050565b620001e06200010260201b60201c565b73ffffffffffffffffffffffffffffffffffffffff16620002066200027b60201b60201c565b73ffffffffffffffffffffffffffffffffffffffff16146200025f576040517f08c379a000000000000000000000000000000000000000000000000000000000815260040162000256906200037c565b60405180910390fd5b80600c908051906020019062000277929190620002a5565b5050565b6000600a60009054906101000a900473ffffffffffffffffffffffffffffffffffffffff16905090565b828054620002b390620003af565b90600052602060002090601f016020900481019282620002d7576000855562000323565b82601f10620002f257805160ff191683800117855562000323565b8280016001018555821562000323579182015b828111156200032257825182559160200191906001019062000305565b5b50905062000332919062000336565b5090565b5b808211156200035157600081600090555060010162000337565b5090565b6000620003646020836200039e565b9150620003718262000414565b602082019050919050565b60006020820190508181036000830152620003978162000355565b9050919050565b600082825260208201905092915050565b60006002820490506001821680620003c857607f821691505b60208210811415620003df57620003de620003e5565b5b50919050565b7f4e487b7100000000000000000000000000000000000000000000000000000000600052602260045260246000fd5b7f4f776e61626c653a2063616c6c6572206973206e6f7420746865206f776e6572600082015250565b614231806200044d6000396000f3fe6080604052600436106101d85760003560e01c80634f6ccce711610102578063a1542bd211610095578063d547cfb711610064578063d547cfb7146106a6578063e985e9c5146106d1578063f2fde38b1461070e578063ff4078d314610737576101d8565b8063a1542bd2146105ec578063a22cb46514610617578063b88d4fde14610640578063c87b56dd14610669576101d8565b8063715018a6116100d1578063715018a6146105425780638462151c146105595780638da5cb5b1461059657806395d89b41146105c1576101d8565b80634f6ccce71461046257806355f804b31461049f5780636352211e146104c857806370a0823114610505576101d8565b806323b872dd1161017a5780633b4b1381116101495780633b4b1381146103e85780633ccfd60b1461040457806342842e0e1461040e5780634f3e1efc14610437576101d8565b806323b872dd1461032c57806327595a80146103555780632f745c591461038057806332cb6b0c146103bd576101d8565b8063095ea7b3116101b6578063095ea7b31461028257806309d42b30146102ab57806318160ddd146102d657806321353c6914610301576101d8565b806301ffc9a7146101dd57806306fdde031461021a578063081812fc14610245575b600080fd5b3480156101e957600080fd5b5061020460048036038101906101ff9190612e37565b610774565b6040516102119190613452565b60405180910390f35b34801561022657600080fd5b5061022f6107ee565b60405161023c919061346d565b60405180910390f35b34801561025157600080fd5b5061026c60048036038101906102679190612eca565b610880565b60405161027991906133c9565b60405180910390f35b34801561028e57600080fd5b506102a960048036038101906102a49190612dfb565b610905565b005b3480156102b757600080fd5b506102c0610a1d565b6040516102cd919061376f565b60405180910390f35b3480156102e257600080fd5b506102eb610a22565b6040516102f8919061376f565b60405180910390f35b34801561030d57600080fd5b50610316610a2f565b604051610323919061376f565b60405180910390f35b34801561033857600080fd5b50610353600480360381019061034e9190612cf5565b610a3c565b005b34801561036157600080fd5b5061036a610a9c565b604051610377919061376f565b60405180910390f35b34801561038c57600080fd5b506103a760048036038101906103a29190612dfb565b610aa9565b6040516103b4919061376f565b60405180910390f35b3480156103c957600080fd5b506103d2610b4e565b6040516103df919061376f565b60405180910390f35b61040260048036038101906103fd9190612eca565b610b54565b005b61040c610cb7565b005b34801561041a57600080fd5b5061043560048036038101906104309190612cf5565b610e2b565b005b34801561044357600080fd5b5061044c610e4b565b604051610459919061376f565b60405180910390f35b34801561046e57600080fd5b5061048960048036038101906104849190612eca565b610e5c565b604051610496919061376f565b60405180910390f35b3480156104ab57600080fd5b506104c660048036038101906104c19190612e89565b610ef3565b005b3480156104d457600080fd5b506104ef60048036038101906104ea9190612eca565b610f89565b6040516104fc91906133c9565b60405180910390f35b34801561051157600080fd5b5061052c60048036038101906105279190612c90565b61103b565b604051610539919061376f565b60405180910390f35b34801561054e57600080fd5b506105576110f3565b005b34801561056557600080fd5b50610580600480360381019061057b9190612c90565b61117b565b60405161058d9190613430565b60405180910390f35b3480156105a257600080fd5b506105ab611275565b6040516105b891906133c9565b60405180910390f35b3480156105cd57600080fd5b506105d661129f565b6040516105e3919061346d565b60405180910390f35b3480156105f857600080fd5b50610601611331565b60405161060e919061376f565b60405180910390f35b34801561062357600080fd5b5061063e60048036038101906106399190612dbf565b61133e565b005b34801561064c57600080fd5b5061066760048036038101906106629190612d44565b611354565b005b34801561067557600080fd5b50610690600480360381019061068b9190612eca565b6113b6565b60405161069d919061346d565b60405180910390f35b3480156106b257600080fd5b506106bb61145d565b6040516106c8919061346d565b60405180910390f35b3480156106dd57600080fd5b506106f860048036038101906106f39190612cb9565b6114eb565b6040516107059190613452565b60405180910390f35b34801561071a57600080fd5b5061073560048036038101906107309190612c90565b61157f565b005b34801561074357600080fd5b5061075e60048036038101906107599190612eca565b611677565b60405161076b9190613452565b60405180910390f35b60007f780e9d63000000000000000000000000000000000000000000000000000000007bffffffffffffffffffffffffffffffffffffffffffffffffffffffff1916827bffffffffffffffffffffffffffffffffffffffffffffffffffffffff191614806107e757506107e682611697565b5b9050919050565b6060600080546107fd90613a09565b80601f016020809104026020016040519081016040528092919081815260200182805461082990613a09565b80156108765780601f1061084b57610100808354040283529160200191610876565b820191906000526020600020905b81548152906001019060200180831161085957829003601f168201915b5050505050905090565b600061088b82611779565b6108ca576040517f08c379a00000000000000000000000000000000000000000000000000000000081526004016108c19061366f565b60405180910390fd5b6004600083815260200190815260200160002060009054906101000a900473ffffffffffffffffffffffffffffffffffffffff169050919050565b600061091082610f89565b90508073ffffffffffffffffffffffffffffffffffffffff168373ffffffffffffffffffffffffffffffffffffffff161415610981576040517f08c379a0000000000000000000000000000000000000000000000000000000008152600401610978906136cf565b60405180910390fd5b8073ffffffffffffffffffffffffffffffffffffffff166109a06117e5565b73ffffffffffffffffffffffffffffffffffffffff1614806109cf57506109ce816109c96117e5565b6114eb565b5b610a0e576040517f08c379a0000000000000000000000000000000000000000000000000000000008152600401610a05906135cf565b60405180910390fd5b610a1883836117ed565b505050565b600181565b6000600880549050905090565b689357d3c76b37b8000081565b610a4d610a476117e5565b826118a6565b610a8c576040517f08c379a0000000000000000000000000000000000000000000000000000000008152600401610a839061372f565b60405180910390fd5b610a97838383611984565b505050565b682567ac70392b88000081565b6000610ab48361103b565b8210610af5576040517f08c379a0000000000000000000000000000000000000000000000000000000008152600401610aec906134af565b60405180910390fd5b600660008473ffffffffffffffffffffffffffffffffffffffff1673ffffffffffffffffffffffffffffffffffffffff168152602001908152602001600020600083815260200190815260200160002054905092915050565b6102bc81565b6102bc811415610baf57689357d3c76b37b80000341015610baa576040517f08c379a0000000000000000000000000000000000000000000000000000000008152600401610ba19061358f565b60405180910390fd5b610c58565b6102b2811115610c0a57683635c9adc5dea00000341015610c05576040517f08c379a0000000000000000000000000000000000000000000000000000000008152600401610bfc9061358f565b60405180910390fd5b610c57565b682567ac70392b880000341015610c56576040517f08c379a0000000000000000000000000000000000000000000000000000000008152600401610c4d9061358f565b60405180910390fd5b5b5b6000610c64600d611beb565b90506102bc8110610caa576040517f08c379a0000000000000000000000000000000000000000000000000000000008152600401610ca19061348f565b60405180910390fd5b610cb382611bf9565b5050565b610cbf6117e5565b73ffffffffffffffffffffffffffffffffffffffff16610cdd611275565b73ffffffffffffffffffffffffffffffffffffffff1614610d33576040517f08c379a0000000000000000000000000000000000000000000000000000000008152600401610d2a9061368f565b60405180910390fd5b600047905060008111610d7b576040517f08c379a0000000000000000000000000000000000000000000000000000000008152600401610d729061364f565b60405180910390fd5b60003373ffffffffffffffffffffffffffffffffffffffff1682604051610da1906133b4565b60006040518083038185875af1925050503d8060008114610dde576040519150601f19603f3d011682016040523d82523d6000602084013e610de3565b606091505b5050905080610e27576040517f08c379a0000000000000000000000000000000000000000000000000000000008152600401610e1e9061370f565b60405180910390fd5b5050565b610e4683838360405180602001604052806000815250611354565b505050565b6000610e57600d611beb565b905090565b6000610e66610a22565b8210610ea7576040517f08c379a0000000000000000000000000000000000000000000000000000000008152600401610e9e9061374f565b60405180910390fd5b60088281548110610ee1577f4e487b7100000000000000000000000000000000000000000000000000000000600052603260045260246000fd5b90600052602060002001549050919050565b610efb6117e5565b73ffffffffffffffffffffffffffffffffffffffff16610f19611275565b73ffffffffffffffffffffffffffffffffffffffff1614610f6f576040517f08c379a0000000000000000000000000000000000000000000000000000000008152600401610f669061368f565b60405180910390fd5b80600c9080519060200190610f85929190612ab4565b5050565b6000806002600084815260200190815260200160002060009054906101000a900473ffffffffffffffffffffffffffffffffffffffff169050600073ffffffffffffffffffffffffffffffffffffffff168173ffffffffffffffffffffffffffffffffffffffff161415611032576040517f08c379a00000000000000000000000000000000000000000000000000000000081526004016110299061360f565b60405180910390fd5b80915050919050565b60008073ffffffffffffffffffffffffffffffffffffffff168273ffffffffffffffffffffffffffffffffffffffff1614156110ac576040517f08c379a00000000000000000000000000000000000000000000000000000000081526004016110a3906135ef565b60405180910390fd5b600360008373ffffffffffffffffffffffffffffffffffffffff1673ffffffffffffffffffffffffffffffffffffffff168152602001908152602001600020549050919050565b6110fb6117e5565b73ffffffffffffffffffffffffffffffffffffffff16611119611275565b73ffffffffffffffffffffffffffffffffffffffff161461116f576040517f08c379a00000000000000000000000000000000000000000000000000000000081526004016111669061368f565b60405180910390fd5b6111796000611cc3565b565b606060006111888361103b565b905060008167ffffffffffffffff8111156111cc577f4e487b7100000000000000000000000000000000000000000000000000000000600052604160045260246000fd5b6040519080825280602002602001820160405280156111fa5781602001602082028036833780820191505090505b50905060005b8281101561126a576112128582610aa9565b82828151811061124b577f4e487b7100000000000000000000000000000000000000000000000000000000600052603260045260246000fd5b602002602001018181525050808061126290613a6c565b915050611200565b508092505050919050565b6000600a60009054906101000a900473ffffffffffffffffffffffffffffffffffffffff16905090565b6060600180546112ae90613a09565b80601f01602080910402602001604051908101604052809291908181526020018280546112da90613a09565b80156113275780601f106112fc57610100808354040283529160200191611327565b820191906000526020600020905b81548152906001019060200180831161130a57829003601f168201915b5050505050905090565b683635c9adc5dea0000081565b6113506113496117e5565b8383611d89565b5050565b61136561135f6117e5565b836118a6565b6113a4576040517f08c379a000000000000000000000000000000000000000000000000000000000815260040161139b9061372f565b60405180910390fd5b6113b084848484611ef6565b50505050565b60606113c182611779565b611400576040517f08c379a00000000000000000000000000000000000000000000000000000000081526004016113f7906136af565b60405180910390fd5b600061140a611f52565b9050600081511161142a5760405180602001604052806000815250611455565b8061143484611fe4565b604051602001611445929190613390565b6040516020818303038152906040525b915050919050565b600c805461146a90613a09565b80601f016020809104026020016040519081016040528092919081815260200182805461149690613a09565b80156114e35780601f106114b8576101008083540402835291602001916114e3565b820191906000526020600020905b8154815290600101906020018083116114c657829003601f168201915b505050505081565b6000600560008473ffffffffffffffffffffffffffffffffffffffff1673ffffffffffffffffffffffffffffffffffffffff16815260200190815260200160002060008373ffffffffffffffffffffffffffffffffffffffff1673ffffffffffffffffffffffffffffffffffffffff16815260200190815260200160002060009054906101000a900460ff16905092915050565b6115876117e5565b73ffffffffffffffffffffffffffffffffffffffff166115a5611275565b73ffffffffffffffffffffffffffffffffffffffff16146115fb576040517f08c379a00000000000000000000000000000000000000000000000000000000081526004016115f29061368f565b60405180910390fd5b600073ffffffffffffffffffffffffffffffffffffffff168173ffffffffffffffffffffffffffffffffffffffff16141561166b576040517f08c379a0000000000000000000000000000000000000000000000000000000008152600401611662906134ef565b60405180910390fd5b61167481611cc3565b50565b600b6020528060005260406000206000915054906101000a900460ff1681565b60007f80ac58cd000000000000000000000000000000000000000000000000000000007bffffffffffffffffffffffffffffffffffffffffffffffffffffffff1916827bffffffffffffffffffffffffffffffffffffffffffffffffffffffff1916148061176257507f5b5e139f000000000000000000000000000000000000000000000000000000007bffffffffffffffffffffffffffffffffffffffffffffffffffffffff1916827bffffffffffffffffffffffffffffffffffffffffffffffffffffffff1916145b80611772575061177182612191565b5b9050919050565b60008073ffffffffffffffffffffffffffffffffffffffff166002600084815260200190815260200160002060009054906101000a900473ffffffffffffffffffffffffffffffffffffffff1673ffffffffffffffffffffffffffffffffffffffff1614159050919050565b600033905090565b816004600083815260200190815260200160002060006101000a81548173ffffffffffffffffffffffffffffffffffffffff021916908373ffffffffffffffffffffffffffffffffffffffff160217905550808273ffffffffffffffffffffffffffffffffffffffff1661186083610f89565b73ffffffffffffffffffffffffffffffffffffffff167f8c5be1e5ebec7d5bd14f71427d1e84f3dd0314c0f7b2291e5b200ac8c7c3b92560405160405180910390a45050565b60006118b182611779565b6118f0576040517f08c379a00000000000000000000000000000000000000000000000000000000081526004016118e7906135af565b60405180910390fd5b60006118fb83610f89565b90508073ffffffffffffffffffffffffffffffffffffffff168473ffffffffffffffffffffffffffffffffffffffff16148061196a57508373ffffffffffffffffffffffffffffffffffffffff1661195284610880565b73ffffffffffffffffffffffffffffffffffffffff16145b8061197b575061197a81856114eb565b5b91505092915050565b8273ffffffffffffffffffffffffffffffffffffffff166119a482610f89565b73ffffffffffffffffffffffffffffffffffffffff16146119fa576040517f08c379a00000000000000000000000000000000000000000000000000000000081526004016119f19061350f565b60405180910390fd5b600073ffffffffffffffffffffffffffffffffffffffff168273ffffffffffffffffffffffffffffffffffffffff161415611a6a576040517f08c379a0000000000000000000000000000000000000000000000000000000008152600401611a619061354f565b60405180910390fd5b611a758383836121fb565b611a806000826117ed565b6001600360008573ffffffffffffffffffffffffffffffffffffffff1673ffffffffffffffffffffffffffffffffffffffff1681526020019081526020016000206000828254611ad0919061391f565b925050819055506001600360008473ffffffffffffffffffffffffffffffffffffffff1673ffffffffffffffffffffffffffffffffffffffff1681526020019081526020016000206000828254611b279190613898565b92505081905550816002600083815260200190815260200160002060006101000a81548173ffffffffffffffffffffffffffffffffffffffff021916908373ffffffffffffffffffffffffffffffffffffffff160217905550808273ffffffffffffffffffffffffffffffffffffffff168473ffffffffffffffffffffffffffffffffffffffff167fddf252ad1be2c89b69c2b068fc378daa952ba7f163c4a11628f55a4df523b3ef60405160405180910390a4611be683838361230f565b505050565b600081600001549050919050565b600080821415611c1457611c0d600d611beb565b9050611c18565b8190505b611c223382612314565b60001515600b600083815260200190815260200160002060009054906101000a900460ff16151514611c89576040517f08c379a0000000000000000000000000000000000000000000000000000000008152600401611c80906136ef565b60405180910390fd5b6001600b600083815260200190815260200160002060006101000a81548160ff021916908315150217905550611cbf600d612332565b5050565b6000600a60009054906101000a900473ffffffffffffffffffffffffffffffffffffffff16905081600a60006101000a81548173ffffffffffffffffffffffffffffffffffffffff021916908373ffffffffffffffffffffffffffffffffffffffff1602179055508173ffffffffffffffffffffffffffffffffffffffff168173ffffffffffffffffffffffffffffffffffffffff167f8be0079c531659141344cd1fd0a4f28419497f9722a3daafe3b4186f6b6457e060405160405180910390a35050565b8173ffffffffffffffffffffffffffffffffffffffff168373ffffffffffffffffffffffffffffffffffffffff161415611df8576040517f08c379a0000000000000000000000000000000000000000000000000000000008152600401611def9061356f565b60405180910390fd5b80600560008573ffffffffffffffffffffffffffffffffffffffff1673ffffffffffffffffffffffffffffffffffffffff16815260200190815260200160002060008473ffffffffffffffffffffffffffffffffffffffff1673ffffffffffffffffffffffffffffffffffffffff16815260200190815260200160002060006101000a81548160ff0219169083151502179055508173ffffffffffffffffffffffffffffffffffffffff168373ffffffffffffffffffffffffffffffffffffffff167f17307eab39ab6107e8899845ad3d59bd9653f200f220920489ca2b5937696c3183604051611ee99190613452565b60405180910390a3505050565b611f01848484611984565b611f0d84848484612348565b611f4c576040517f08c379a0000000000000000000000000000000000000000000000000000000008152600401611f43906134cf565b60405180910390fd5b50505050565b6060600c8054611f6190613a09565b80601f0160208091040260200160405190810160405280929190818152602001828054611f8d90613a09565b8015611fda5780601f10611faf57610100808354040283529160200191611fda565b820191906000526020600020905b815481529060010190602001808311611fbd57829003601f168201915b5050505050905090565b6060600082141561202c576040518060400160405280600181526020017f3000000000000000000000000000000000000000000000000000000000000000815250905061218c565b600082905060005b6000821461205e57808061204790613a6c565b915050600a8261205791906138ee565b9150612034565b60008167ffffffffffffffff8111156120a0577f4e487b7100000000000000000000000000000000000000000000000000000000600052604160045260246000fd5b6040519080825280601f01601f1916602001820160405280156120d25781602001600182028036833780820191505090505b5090505b60008514612185576001826120eb919061391f565b9150600a856120fa9190613ab5565b60306121069190613898565b60f81b818381518110612142577f4e487b7100000000000000000000000000000000000000000000000000000000600052603260045260246000fd5b60200101907effffffffffffffffffffffffffffffffffffffffffffffffffffffffffffff1916908160001a905350600a8561217e91906138ee565b94506120d6565b8093505050505b919050565b60007f01ffc9a7000000000000000000000000000000000000000000000000000000007bffffffffffffffffffffffffffffffffffffffffffffffffffffffff1916827bffffffffffffffffffffffffffffffffffffffffffffffffffffffff1916149050919050565b6122068383836124df565b600073ffffffffffffffffffffffffffffffffffffffff168373ffffffffffffffffffffffffffffffffffffffff16141561224957612244816124e4565b612288565b8173ffffffffffffffffffffffffffffffffffffffff168373ffffffffffffffffffffffffffffffffffffffff161461228757612286838261252d565b5b5b600073ffffffffffffffffffffffffffffffffffffffff168273ffffffffffffffffffffffffffffffffffffffff1614156122cb576122c68161269a565b61230a565b8273ffffffffffffffffffffffffffffffffffffffff168273ffffffffffffffffffffffffffffffffffffffff16146123095761230882826127dd565b5b5b505050565b505050565b61232e82826040518060200160405280600081525061285c565b5050565b6001816000016000828254019250508190555050565b60006123698473ffffffffffffffffffffffffffffffffffffffff166128b7565b156124d2578373ffffffffffffffffffffffffffffffffffffffff1663150b7a026123926117e5565b8786866040518563ffffffff1660e01b81526004016123b494939291906133e4565b602060405180830381600087803b1580156123ce57600080fd5b505af19250505080156123ff57506040513d601f19601f820116820180604052508101906123fc9190612e60565b60015b612482573d806000811461242f576040519150601f19603f3d011682016040523d82523d6000602084013e612434565b606091505b5060008151141561247a576040517f08c379a0000000000000000000000000000000000000000000000000000000008152600401612471906134cf565b60405180910390fd5b805181602001fd5b63150b7a0260e01b7bffffffffffffffffffffffffffffffffffffffffffffffffffffffff1916817bffffffffffffffffffffffffffffffffffffffffffffffffffffffff1916149150506124d7565b600190505b949350505050565b505050565b6008805490506009600083815260200190815260200160002081905550600881908060018154018082558091505060019003906000526020600020016000909190919091505550565b6000600161253a8461103b565b612544919061391f565b9050600060076000848152602001908152602001600020549050818114612629576000600660008673ffffffffffffffffffffffffffffffffffffffff1673ffffffffffffffffffffffffffffffffffffffff168152602001908152602001600020600084815260200190815260200160002054905080600660008773ffffffffffffffffffffffffffffffffffffffff1673ffffffffffffffffffffffffffffffffffffffff168152602001908152602001600020600084815260200190815260200160002081905550816007600083815260200190815260200160002081905550505b6007600084815260200190815260200160002060009055600660008573ffffffffffffffffffffffffffffffffffffffff1673ffffffffffffffffffffffffffffffffffffffff16815260200190815260200160002060008381526020019081526020016000206000905550505050565b600060016008805490506126ae919061391f565b9050600060096000848152602001908152602001600020549050600060088381548110612704577f4e487b7100000000000000000000000000000000000000000000000000000000600052603260045260246000fd5b90600052602060002001549050806008838154811061274c577f4e487b7100000000000000000000000000000000000000000000000000000000600052603260045260246000fd5b9060005260206000200181905550816009600083815260200190815260200160002081905550600960008581526020019081526020016000206000905560088054806127c1577f4e487b7100000000000000000000000000000000000000000000000000000000600052603160045260246000fd5b6001900381819060005260206000200160009055905550505050565b60006127e88361103b565b905081600660008573ffffffffffffffffffffffffffffffffffffffff1673ffffffffffffffffffffffffffffffffffffffff168152602001908152602001600020600083815260200190815260200160002081905550806007600084815260200190815260200160002081905550505050565b61286683836128da565b6128736000848484612348565b6128b2576040517f08c379a00000000000000000000000000000000000000000000000000000000081526004016128a9906134cf565b60405180910390fd5b505050565b6000808273ffffffffffffffffffffffffffffffffffffffff163b119050919050565b600073ffffffffffffffffffffffffffffffffffffffff168273ffffffffffffffffffffffffffffffffffffffff16141561294a576040517f08c379a00000000000000000000000000000000000000000000000000000000081526004016129419061362f565b60405180910390fd5b61295381611779565b15612993576040517f08c379a000000000000000000000000000000000000000000000000000000000815260040161298a9061352f565b60405180910390fd5b61299f600083836121fb565b6001600360008473ffffffffffffffffffffffffffffffffffffffff1673ffffffffffffffffffffffffffffffffffffffff16815260200190815260200160002060008282546129ef9190613898565b92505081905550816002600083815260200190815260200160002060006101000a81548173ffffffffffffffffffffffffffffffffffffffff021916908373ffffffffffffffffffffffffffffffffffffffff160217905550808273ffffffffffffffffffffffffffffffffffffffff16600073ffffffffffffffffffffffffffffffffffffffff167fddf252ad1be2c89b69c2b068fc378daa952ba7f163c4a11628f55a4df523b3ef60405160405180910390a4612ab06000838361230f565b5050565b828054612ac090613a09565b90600052602060002090601f016020900481019282612ae25760008555612b29565b82601f10612afb57805160ff1916838001178555612b29565b82800160010185558215612b29579182015b82811115612b28578251825591602001919060010190612b0d565b5b509050612b369190612b3a565b5090565b5b80821115612b53576000816000905550600101612b3b565b5090565b6000612b6a612b65846137af565b61378a565b905082815260208101848484011115612b8257600080fd5b612b8d8482856139c7565b509392505050565b6000612ba8612ba3846137e0565b61378a565b905082815260208101848484011115612bc057600080fd5b612bcb8482856139c7565b509392505050565b600081359050612be28161419f565b92915050565b600081359050612bf7816141b6565b92915050565b600081359050612c0c816141cd565b92915050565b600081519050612c21816141cd565b92915050565b600082601f830112612c3857600080fd5b8135612c48848260208601612b57565b91505092915050565b600082601f830112612c6257600080fd5b8135612c72848260208601612b95565b91505092915050565b600081359050612c8a816141e4565b92915050565b600060208284031215612ca257600080fd5b6000612cb084828501612bd3565b91505092915050565b60008060408385031215612ccc57600080fd5b6000612cda85828601612bd3565b9250506020612ceb85828601612bd3565b9150509250929050565b600080600060608486031215612d0a57600080fd5b6000612d1886828701612bd3565b9350506020612d2986828701612bd3565b9250506040612d3a86828701612c7b565b9150509250925092565b60008060008060808587031215612d5a57600080fd5b6000612d6887828801612bd3565b9450506020612d7987828801612bd3565b9350506040612d8a87828801612c7b565b925050606085013567ffffffffffffffff811115612da757600080fd5b612db387828801612c27565b91505092959194509250565b60008060408385031215612dd257600080fd5b6000612de085828601612bd3565b9250506020612df185828601612be8565b9150509250929050565b60008060408385031215612e0e57600080fd5b6000612e1c85828601612bd3565b9250506020612e2d85828601612c7b565b9150509250929050565b600060208284031215612e4957600080fd5b6000612e5784828501612bfd565b91505092915050565b600060208284031215612e7257600080fd5b6000612e8084828501612c12565b91505092915050565b600060208284031215612e9b57600080fd5b600082013567ffffffffffffffff811115612eb557600080fd5b612ec184828501612c51565b91505092915050565b600060208284031215612edc57600080fd5b6000612eea84828501612c7b565b91505092915050565b6000612eff8383613372565b60208301905092915050565b612f1481613953565b82525050565b6000612f2582613821565b612f2f818561384f565b9350612f3a83613811565b8060005b83811015612f6b578151612f528882612ef3565b9750612f5d83613842565b925050600181019050612f3e565b5085935050505092915050565b612f8181613965565b82525050565b6000612f928261382c565b612f9c8185613860565b9350612fac8185602086016139d6565b612fb581613ba2565b840191505092915050565b6000612fcb82613837565b612fd5818561387c565b9350612fe58185602086016139d6565b612fee81613ba2565b840191505092915050565b600061300482613837565b61300e818561388d565b935061301e8185602086016139d6565b80840191505092915050565b600061303760108361387c565b915061304282613bb3565b602082019050919050565b600061305a602b8361387c565b915061306582613bdc565b604082019050919050565b600061307d60328361387c565b915061308882613c2b565b604082019050919050565b60006130a060268361387c565b91506130ab82613c7a565b604082019050919050565b60006130c360258361387c565b91506130ce82613cc9565b604082019050919050565b60006130e6601c8361387c565b91506130f182613d18565b602082019050919050565b600061310960248361387c565b915061311482613d41565b604082019050919050565b600061312c60198361387c565b915061313782613d90565b602082019050919050565b600061314f60228361387c565b915061315a82613db9565b604082019050919050565b6000613172602c8361387c565b915061317d82613e08565b604082019050919050565b600061319560388361387c565b91506131a082613e57565b604082019050919050565b60006131b8602a8361387c565b91506131c382613ea6565b604082019050919050565b60006131db60298361387c565b91506131e682613ef5565b604082019050919050565b60006131fe60208361387c565b915061320982613f44565b602082019050919050565b600061322160198361387c565b915061322c82613f6d565b602082019050919050565b6000613244602c8361387c565b915061324f82613f96565b604082019050919050565b600061326760208361387c565b915061327282613fe5565b602082019050919050565b600061328a602f8361387c565b91506132958261400e565b604082019050919050565b60006132ad60218361387c565b91506132b88261405d565b604082019050919050565b60006132d0601c8361387c565b91506132db826140ac565b602082019050919050565b60006132f3600083613871565b91506132fe826140d5565b600082019050919050565b600061331660108361387c565b9150613321826140d8565b602082019050919050565b600061333960318361387c565b915061334482614101565b604082019050919050565b600061335c602c8361387c565b915061336782614150565b604082019050919050565b61337b816139bd565b82525050565b61338a816139bd565b82525050565b600061339c8285612ff9565b91506133a88284612ff9565b91508190509392505050565b60006133bf826132e6565b9150819050919050565b60006020820190506133de6000830184612f0b565b92915050565b60006080820190506133f96000830187612f0b565b6134066020830186612f0b565b6134136040830185613381565b81810360608301526134258184612f87565b905095945050505050565b6000602082019050818103600083015261344a8184612f1a565b905092915050565b60006020820190506134676000830184612f78565b92915050565b600060208201905081810360008301526134878184612fc0565b905092915050565b600060208201905081810360008301526134a88161302a565b9050919050565b600060208201905081810360008301526134c88161304d565b9050919050565b600060208201905081810360008301526134e881613070565b9050919050565b6000602082019050818103600083015261350881613093565b9050919050565b60006020820190508181036000830152613528816130b6565b9050919050565b60006020820190508181036000830152613548816130d9565b9050919050565b60006020820190508181036000830152613568816130fc565b9050919050565b600060208201905081810360008301526135888161311f565b9050919050565b600060208201905081810360008301526135a881613142565b9050919050565b600060208201905081810360008301526135c881613165565b9050919050565b600060208201905081810360008301526135e881613188565b9050919050565b60006020820190508181036000830152613608816131ab565b9050919050565b60006020820190508181036000830152613628816131ce565b9050919050565b60006020820190508181036000830152613648816131f1565b9050919050565b6000602082019050818103600083015261366881613214565b9050919050565b6000602082019050818103600083015261368881613237565b9050919050565b600060208201905081810360008301526136a88161325a565b9050919050565b600060208201905081810360008301526136c88161327d565b9050919050565b600060208201905081810360008301526136e8816132a0565b9050919050565b60006020820190508181036000830152613708816132c3565b9050919050565b6000602082019050818103600083015261372881613309565b9050919050565b600060208201905081810360008301526137488161332c565b9050919050565b600060208201905081810360008301526137688161334f565b9050919050565b60006020820190506137846000830184613381565b92915050565b60006137946137a5565b90506137a08282613a3b565b919050565b6000604051905090565b600067ffffffffffffffff8211156137ca576137c9613b73565b5b6137d382613ba2565b9050602081019050919050565b600067ffffffffffffffff8211156137fb576137fa613b73565b5b61380482613ba2565b9050602081019050919050565b6000819050602082019050919050565b600081519050919050565b600081519050919050565b600081519050919050565b6000602082019050919050565b600082825260208201905092915050565b600082825260208201905092915050565b600081905092915050565b600082825260208201905092915050565b600081905092915050565b60006138a3826139bd565b91506138ae836139bd565b9250827fffffffffffffffffffffffffffffffffffffffffffffffffffffffffffffffff038211156138e3576138e2613ae6565b5b828201905092915050565b60006138f9826139bd565b9150613904836139bd565b92508261391457613913613b15565b5b828204905092915050565b600061392a826139bd565b9150613935836139bd565b92508282101561394857613947613ae6565b5b828203905092915050565b600061395e8261399d565b9050919050565b60008115159050919050565b60007fffffffff0000000000000000000000000000000000000000000000000000000082169050919050565b600073ffffffffffffffffffffffffffffffffffffffff82169050919050565b6000819050919050565b82818337600083830152505050565b60005b838110156139f45780820151818401526020810190506139d9565b83811115613a03576000848401525b50505050565b60006002820490506001821680613a2157607f821691505b60208210811415613a3557613a34613b44565b5b50919050565b613a4482613ba2565b810181811067ffffffffffffffff82111715613a6357613a62613b73565b5b80604052505050565b6000613a77826139bd565b91507fffffffffffffffffffffffffffffffffffffffffffffffffffffffffffffffff821415613aaa57613aa9613ae6565b5b600182019050919050565b6000613ac0826139bd565b9150613acb836139bd565b925082613adb57613ada613b15565b5b828206905092915050565b7f4e487b7100000000000000000000000000000000000000000000000000000000600052601160045260246000fd5b7f4e487b7100000000000000000000000000000000000000000000000000000000600052601260045260246000fd5b7f4e487b7100000000000000000000000000000000000000000000000000000000600052602260045260246000fd5b7f4e487b7100000000000000000000000000000000000000000000000000000000600052604160045260246000fd5b6000601f19601f8301169050919050565b7f4e6f7420656e6f756768204e4654732100000000000000000000000000000000600082015250565b7f455243373231456e756d657261626c653a206f776e657220696e646578206f7560008201527f74206f6620626f756e6473000000000000000000000000000000000000000000602082015250565b7f4552433732313a207472616e7366657220746f206e6f6e20455243373231526560008201527f63656976657220696d706c656d656e7465720000000000000000000000000000602082015250565b7f4f776e61626c653a206e6577206f776e657220697320746865207a65726f206160008201527f6464726573730000000000000000000000000000000000000000000000000000602082015250565b7f4552433732313a207472616e736665722066726f6d20696e636f72726563742060008201527f6f776e6572000000000000000000000000000000000000000000000000000000602082015250565b7f4552433732313a20746f6b656e20616c7265616479206d696e74656400000000600082015250565b7f4552433732313a207472616e7366657220746f20746865207a65726f2061646460008201527f7265737300000000000000000000000000000000000000000000000000000000602082015250565b7f4552433732313a20617070726f766520746f2063616c6c657200000000000000600082015250565b7f4e6f7420656e6f75676820657468657220746f207075726368617365204e465460008201527f732e000000000000000000000000000000000000000000000000000000000000602082015250565b7f4552433732313a206f70657261746f7220717565727920666f72206e6f6e657860008201527f697374656e7420746f6b656e0000000000000000000000000000000000000000602082015250565b7f4552433732313a20617070726f76652063616c6c6572206973206e6f74206f7760008201527f6e6572206e6f7220617070726f76656420666f7220616c6c0000000000000000602082015250565b7f4552433732313a2062616c616e636520717565727920666f7220746865207a6560008201527f726f206164647265737300000000000000000000000000000000000000000000602082015250565b7f4552433732313a206f776e657220717565727920666f72206e6f6e657869737460008201527f656e7420746f6b656e0000000000000000000000000000000000000000000000602082015250565b7f4552433732313a206d696e7420746f20746865207a65726f2061646472657373600082015250565b7f4e6f206574686572206c65667420746f20776974686472617700000000000000600082015250565b7f4552433732313a20617070726f76656420717565727920666f72206e6f6e657860008201527f697374656e7420746f6b656e0000000000000000000000000000000000000000602082015250565b7f4f776e61626c653a2063616c6c6572206973206e6f7420746865206f776e6572600082015250565b7f4552433732314d657461646174613a2055524920717565727920666f72206e6f60008201527f6e6578697374656e7420746f6b656e0000000000000000000000000000000000602082015250565b7f4552433732313a20617070726f76616c20746f2063757272656e74206f776e6560008201527f7200000000000000000000000000000000000000000000000000000000000000602082015250565b7f5468697320536d7567446f676520616c7265616479206d696e74656400000000600082015250565b50565b7f5472616e73666572206661696c65642e00000000000000000000000000000000600082015250565b7f4552433732313a207472616e736665722063616c6c6572206973206e6f74206f60008201527f776e6572206e6f7220617070726f766564000000000000000000000000000000602082015250565b7f455243373231456e756d657261626c653a20676c6f62616c20696e646578206f60008201527f7574206f6620626f756e64730000000000000000000000000000000000000000602082015250565b6141a881613953565b81146141b357600080fd5b50565b6141bf81613965565b81146141ca57600080fd5b50565b6141d681613971565b81146141e157600080fd5b50565b6141ed816139bd565b81146141f857600080fd5b5056fea264697066735822122065c36e2758701fe57b7899f3ee3bc0ac72410b1e80e3ae052bc7ff3ae30b7cb264736f6c6343000804003368747470733a2f2f676174657761792e70696e6174612e636c6f75642f697066732f516d5a4c696950797a5a3956326d6574634342574861704e576957443855355076456b5669324c5455446b374c79",
  "linkReferences": {},
  "deployedLinkReferences": {}
}